:020000040800F2
:1000000000000120C5020008CB020008CF02000852
:1000100041030008450300088D03000800000000AC
:10002000000000000000000000000000D5030008F0
:10003000D903000800000000DD030008250E0008B9
:10004000F1030008F1030008F1030008F1030008C0
:10005000F1030008F1030008010800081D0800086A
:100060003908000855080008F1030008F1030008EA
:10007000F1030008F1030008F1030008F103000890
:10008000F1030008F1030008F1030008000000007C
:10009000000000000000000000000000F103000864
:1000A000F1030008F1030008F1030008F103000860
:1000B000F1030008F1030008F1030008F103000850
:1000C000F1030008F1030008F1030008F103000840
:1000D000F1030008F1030008F1030008000000002C
:1000E000F1030008F1030008F1030008000000001C
:1000F000000000000000000000000000F103000804
:1001000000000000F1030008F1030008F1030008FB
:1001100000000000000000000000000000000000DF
:10012000F1030008F1030008F1030008F1030008DF
:10013000F1030008000000000000000000000000C3
:10014000000000000000000000000000F1030008B3
:1001500021070008F1030008F1030008F10300087B
:10016000F1030008F1030008000000000000000097
:10017000000000000000000000000000000000007F
:1001800000000000F1030008000000000000000073
:10019000F103000800B583B000F0BAF9384B394AD2
:1001A0001360394A1360394900E02146384B9942BF
:1001B0000BD20A684B6801F10C0488689842F4D9A4
:1001C0001168196004330432F8E72E4B1A68314B7A
:1001D0009A4200D0FEE72C4B1A682F4B9A42F9D175
:1001E000274B2E4A13602E4A13602E4B05E0002049
:1001F000106004329342FAD80B462B4A934204D241
:10020000194651F8082B5B68F4E7244B1B6813B9B7
:10021000234B1B6803B1FEE700F086F9694601A88D
:1002200000F022F9214C224BE41AA4100025AC4224
:1002300014DC204C204BE41AA4100025AC4213DC43
:100240000099019800F08EFE05461C4C1C4BE41AE8
:10025000A410002C0EDC284600F0E2F8144B53F8F2
:10026000253098470135E2E7134B53F8253098477E
:100270000135E3E7013C124B53F824309847E8E797
:10028000BABADECA0000002080000020F403000893
:100290000C040008785634123254769884000020FA
:1002A000900100200C0400081C0400081C04000835
:1002B0001C0400081C0400081C0400081C0400089E
:1002C0001C04000808B5FFF765FF00BEFEE71EF03E
:1002D000040F0CBFEFF30880EFF309807146414A29
:1002E00010472DE9F04182B004468846124B5E6B00
:1002F0009F6B9D6A1B6B13F0020F03D00E4BDB6AE2
:10030000002B0CDB0D4800F0B7F8CDF800803B4621
:1003100032462946204600F00BF900BEFEE74BF6B8
:10032000AB6100F07FF90028ECD0034B4FF00042A6
:10033000DA6202B0BDE8F08100ED00E0441C000884
:1003400000BEFEE71EF0040F0CBFEFF30880EFF3D2
:1003500009807146244A10472DE9F04182B00446D5
:100360008846084B5E6B9F6B9D6A074800F084F8D7
:10037000CDF800803B4632462946204600F0D8F8AA
:1003800000BEFEE700ED00E0541C00081EF0040F64
:100390000CBFEFF30880EFF309807146134A104752
:1003A0002DE9F04182B004468846084B5E6B9F6B96
:1003B0009D6A074800F060F8CDF800803B46324661
:1003C0002946204600F0B4F800BEFEE700ED00E04C
:1003D000601C000800BEFEE700BEFEE700BEFEE7B0
:1003E00070470000E302000859030008A103000859
:0403F00000BEFEE766
:1003F4008C1D000800000020840000208C1D0008D3
:10040400000000100000001084000020940100206F
:080414000000001000000010C0
:10042000FEE7000008B503460C4A12685AB10B4AB1
:100430001068033323F003030344094A934206D8A8
:10044000064A136008BD054A06491160EFE700F04F
:10045000F3FE0C2303604FF0FF30F3E78800002029
:1004600000FC00209401002001230360014B0B607D
:10047000704700BF040000200FB400B583B004AB88
:1004800053F8042B01938021064800F007FF002851
:1004900003DD0146034800F037F803B05DF804EBD4
:1004A00004B07047900000202DE9F04385B0044669
:1004B0000F4643560BB10E461EE004252846214642
:1004C000ABBE0446384605B0BDE8F08314F9011B05
:1004D00004AA1A4402F8101C0133AB42F6D304AA52
:1004E0001344002203F8102C4FF00408E94640465C
:1004F0004946ABBE8046761B002EE3D03546102E13
:1005000028BF10250023E8E708B5FFF7CDFF08BD99
:1005100008B500F097F8024A024B9A6008BD00BF88
:100520000000000800ED00E008B500F0ABF808BDE1
:10053000F8B504460D4617461E462748FFF79CFFB0
:1005400021682648FFF798FF61682548FFF794FF68
:10055000A1682448FFF790FFE1682348FFF78CFF6C
:1005600021692248FFF788FF61692148FFF784FF6E
:10057000A1692048FFF780FFE1691F48FFF77CFF72
:100580001E48FFF779FF29461D48FFF775FF1D4CF0
:10059000E16A1D48FFF770FF216B1C48FFF76CFFF5
:1005A000E16B1B48FFF768FF15F0800F0AD115F4C7
:1005B000004F0CD11748FFF75FFF06991648FFF769
:1005C0005BFFF8BD39461548FFF756FFEFE73146A8
:1005D0001348FFF751FFEDE7281B0008381B000800
:1005E000481B0008581B0008681B0008781B0008FF
:1005F000881B0008981B0008A81B0008B81B0008EF
:10060000C41B000800ED00E0D41B0008E41B000838
:10061000F41B0008241C00082C1C0008041C000803
:10062000141C000883691A888A4201D00020704790
:100630000268033A012A03D802338361012070471C
:10064000002070470C4B1A6842F001021A6000212A
:1006500099601A6822F0847222F480321A60074A84
:100660005A601A6822F480221A60D960044B4FF055
:1006700000629A60704700BF0038024010300024CA
:1006800000ED00E0224B9B6803F00C03042B14D018
:10069000082B16D01BB11F4B1F4A1A6002E01D4BDE
:1006A0001D4A1A601A4B9B68C3F303131B4AD15CA3
:1006B000184A1368CB4013607047164B164A1A60ED
:1006C000F0E7134B5A685B6803F03F0312F4800FA6
:1006D00013D0114AB2FBF3F20D4B5B68C3F38813DE
:1006E00003FB02F30A4A5268C2F30142013252008C
:1006F000B3FBF2F3074A1360D4E7074AB2FBF3F205
:10070000034B5B68C3F3881303FB02F3EAE700BF04
:10071000003802400C0000200024F400701C000887
:1007200008B5074B5B6813F4006F07D0054B5B6996
:100730009847034AD36843F40063D36008BD00BF01
:10074000006402401001002030B483080A4A0233DA
:1007500052F8234000F0030080000F25854024EA72
:10076000050442F8234052F823408140214342F8D7
:10077000231030BC704700BF0038014003490B68AC
:10078000012202FA00F003430B607047003C014075
:1007900001290FD011B1022918D07047114BD96827
:1007A000012202FA00F021EA0001D9609A681043A0
:1007B000986070470B4B9968012202FA00F021EA19
:1007C00000019960DA681043D8607047054A916863
:1007D000012303FA00F001439160D3681843D0600D
:1007E000704700BF003C0140014B1860704700BFDC
:1007F00030010020014B5860704700BF30010020DD
:1008000008B5044B1B689847034A536943F001033A
:10081000536108BD30010020003C014008B5044B85
:100820005B689847034A536943F00203536108BD6C
:1008300030010020003C014008B5044B9B689847FC
:10084000034A536943F00403536108BD300100209B
:10085000003C014008B5044BDB689847034A5369E4
:1008600043F00803536108BD30010020003C014003
:10087000002308E0054802680121994022EA0102AC
:1008800002600133DBB20F2BF4D97047003C01400A
:10089000002307E005480268012199400A430260ED
:1008A0000133DBB20F2BF5D9704700BF003C01408C
:1008B000154BDB6813F4803FFAD1134B1B69002BF7
:1008C0001BDB114B1A6922F078021A611A6942EA9D
:1008D000C00018611A6942F002021A611A6942F4F2
:1008E00080321A61084BDB6813F4803FFAD1064A64
:1008F000136923F0020313617047034B034A5A60E4
:1009000002F188325A60DCE7003C0240230167456F
:1009100030B4194BDB6813F4803FFAD1164B1B69D6
:10092000002B0ADB144B1C6924F440741C611C6905
:1009300044F480741C6100241AE00F4B0F4C5C607F
:1009400004F188345C60EDE70B4D2B6943F0010343
:100950002B6131F8143020F8023B074BDB6813F4AD
:10096000803FFAD1044D2B6923F001032B61013440
:10097000A242E9D830BC7047003C024023016745E1
:1009800010B4012812D018B102281DD010BC704735
:10099000144B1868490003248C4020EA04001860B6
:1009A000186802FA01F101431960EFE70E4B18686D
:1009B000490003248C4020EA04001860186802FAF9
:1009C00001F101431960E1E7084B1868490003246D
:1009D0008C4020EA04001860186802FA01F1014313
:1009E0001960D3E700000240000402400008024002
:1009F00010B4012812D018B102281DD010BC7047C5
:100A0000144BD868490003248C4020EA0400D860C5
:100A1000D86802FA01F10143D960EFE70E4BD868BC
:100A2000490003248C4020EA0400D860D86802FA08
:100A300001F10143D960E1E7084BD868490003247C
:100A40008C4020EA0400D860D86802FA01F1014322
:100A5000D960D3E7000002400004024000080240D1
:100A6000012817D010B1022827D07047012A0AD0D8
:100A7000002A2DD11A484369012202FA01F123EA22
:100A80000101416170471648436902FA01F11943B7
:100A900041617047012A09D0D2B912484369012245
:100AA00002FA01F123EA0101416170470D484369EF
:100AB00002FA01F1194341617047012A09D03AB99C
:100AC00009484369012202FA01F123EA0101416167
:100AD00070470548436902FA01F1194341617047C3
:100AE00000000240000402400008024030B4012827
:100AF0001CD018B1022831D030BC7047234844685C
:100B000001258D4024EA0504446044688A4022435C
:100B1000426082684C000321A14022EA0102826007
:100B2000826803FA04F111438160E5E718484468DC
:100B300001258D4024EA0504446044688A4022432C
:100B4000426084684A000321914024EA01018160E7
:100B5000846803FA02F121438160CDE70D484468BF
:100B600001258D4024EA0504446044688A402243FC
:100B700042608268490003248C4022EA04028260B9
:100B8000826803FA01F111438160B5E70000024079
:100B9000000402400008024010B4072930D80128A0
:100BA00012D018B102281DD010BC7047304B186A03
:100BB0008C000F21A14020EA01011962186A02FA93
:100BC00004F101431962EFE72A4B1C6A88000F21E8
:100BD000814024EA010119621C6A02FA00F12143F2
:100BE0001962E1E7244B186A89000F248C4020EA3F
:100BF00004001862186A02FA01F101431962D3E78E
:100C0000A1F10803DBB2072BCED8012820D080B198
:100C10000228C9D1184B586A083989000F248C4022
:100C200020EA04005862586A02FA01F1014359624D
:100C3000BAE70F4B586A083989000F248C4020EA24
:100C400004005862586A02FA01F101435962ABE7A5
:100C5000084B586A083989000F248C4020EA0400A8
:100C60005862586A02FA01F1014359629CE700BFD9
:100C700000000240000402400008024010B4440991
:100C8000064951F8243000F01F00012202FA00F05A
:100C9000184341F8240010BC704700BF00E100E099
:100CA000084A136843F001031360064B1B6813F0F6
:100CB000020FFAD0034B9A6822F003029A609A68F6
:100CC0009A60704700380240032822D8DFE800F01D
:100CD000020A121A0F48036B012202FA01F11943AA
:100CE000016370470B48436B012202FA01F119437B
:100CF000416370470748036C012202FA01F119436E
:100D0000016470470348436C012202FA01F1194360
:100D10004164704700380240044B586000229A60DA
:100D20001A6842F001021A60704700BF10E000E04C
:100D3000024B1868C0F30040704700BF10E000E0AD
:100D400010B1012806D07047054A136843F002032A
:100D500013607047024A136823F002031360704760
:100D600010E000E070B505460120FFF7E9FF42F210
:100D7000C4039D4213D9294BA3FB05235B0B42F20D
:100D8000C40202FB13538BB3244CA4FB05256D0B4B
:100D90000135A4FB0334640B2406002618E04FF44D
:100DA000FA6000FB05F0FFF7B7FFFFF7C1FF00286F
:100DB000FBD01B4A136823F00103136015E06FF0AA
:100DC0007F40FFF7A9FFFFF7B3FF0028FBD0013DED
:100DD00035B1002EF3D12046FFF79EFF0126F2E742
:100DE0000F4A136823F00103136070BD0B4BA3FB84
:100DF00005356D0B002408E06FF07F40FFF78CFF96
:100E0000FFF796FF0028FBD00134AC42F4D3044A2C
:100E1000136823F001031360E7E700BF97A304FA08
:100E200010E000E008B5074B1B689847FFF780FF0C
:100E3000054B1B78012B00D008BD0120FFF780FF78
:100E4000FAE700BF8401002070010020104BDA682F
:100E50006FF3CF32DA6040F283629A60DA686FF340
:100E60000C32DA60DA686FF38A22DA60DA6842F00C
:100E70000802DA60DA6842F00402DA605A6942F085
:100E800040025A61DA6842F40052DA600120704789
:100E900000100140064B1B6813F0800FFAD0044B82
:100EA0005860034B1B6813F0400FFAD001207047C5
:100EB0000010014038B50546002403E0FFF7EAFFC3
:100EC0000134E4B2285D0028F8D10A20FFF7E2FFE0
:100ED0000D20FFF7DFFF38BD044B1B6813F0200F18
:100EE000FAD0024B5868C0B2704700BF00100140F2
:100EF00008B5022813D8104B53F820100F4A116080
:100F000053F820301A6882F308885A680C4B1A602C
:100F100048B102280BD00A4B1B68984708BD094806
:100F2000FFF7C8FFFAE70848FFF7C4FFF3E70748F1
:100F3000FFF7C0FFEFE700BF1000002008ED00E062
:100F400088010020801C00089C1C0008B81C0008B8
:100F500008B50020FFF7CCFF08BD08B50220FFF759
:100F6000C7FF08BD2DE9F04385B0012484F3108844
:100F7000FFF796FE00210846FFF7A6FE2146002057
:100F8000FFF7A2FE04210320FFF79EFE0E2103209F
:100F9000FFF79AFEFFF75AFF022209210020FFF710
:100FA000EFFC072209210020FFF7F6FD02220A21AB
:100FB0000020FFF7E5FC07220A210020FFF7ECFDE7
:100FC00022460D210020FFF7DBFC00231A460D21ED
:100FD0001846FFF78BFD22460E210020FFF7D0FCBC
:100FE00000231A460E211846FFF780FD00240CE06E
:100FF000E5B2012229460020FFF7C2FC00231A4671
:1010000029461846FFF772FD0134072CF0DD002257
:1010100011460120FFF7B4FC012200211046FFF722
:10102000E7FC002201210846FFF7AAFC0122114635
:101030001046FFF7DDFC0620FFF720FE0720FFF734
:101040001DFE01210020FFF77FFB01210846FFF76D
:101050007BFB01210020FFF79BFB01210846FFF7E6
:1010600097FB6748FFF7C0FB6648FFF7C3FB00200C
:10107000FFF784FB0120FFF781FB002383F3108837
:10108000FFF72AFF6D2800F09180FFF701FC012295
:101090000D210020FFF7E4FC4FF4FA60FFF762FE39
:1010A00000220D211046FFF7DBFC4FF4FA60FFF73A
:1010B00059FEECE72F38C0B2FFF7FAFBFFF70CFF41
:1010C000514B18701B78DBB2662B1CD04E4B1B7833
:1010D000DBB2682B28D04C4B1B78DBB2702BEDD1E8
:1010E000FFF7FAFE8046FFF7F7FE0446FFF7F4FE2F
:1010F000464B1F6847EA04270743002400940194E5
:10110000029403942FE036B92E20FFF7C3FE404827
:10111000FFF7D0FE4AE0022E48D13E48FFF7CAFE54
:101120002C20FFF7B7FE41E0FFF7D6FE0446FFF79D
:10113000D3FE40EA04231B04344A1360BEE7FFF7E2
:10114000CBFE0546FFF7C8FE45EA002292B204AB8B
:1011500003EB440323F8102CD2B221460020FFF702
:101160007FFC0134E4B2C8F34709A145E7D8FFF793
:10117000B3FE294D2870FFF7AFFE284C20704A4679
:1011800069463846FFF7C4FB2A7823789A4295D0FF
:10119000234B01221A7091E72248FFF78BFE05E0EE
:1011A00065281BD07A2820D0762825D0FFF760FB51
:1011B000FFF792FE73283FF468AFA0F13106F6B254
:1011C000022E7FF677AF6328EAD1154B1B78DBB28E
:1011D000012BE1D01448FFF76DFEE7E70220FFF78F
:1011E00067FB1248FFF766FEE0E70420FFF760FBAD
:1011F0000F48FFF75FFED9E70E48FFF75BFED5E724
:10120000510F00085B0F0008740100208C010020C2
:10121000D41C0008EC1C00087101002072010020A1
:1012200073010020041D0008101D0008201D000887
:10123000301D0008401D0008014B1868704700BFB2
:101240001C00002030B5141E05469BB0184605DA78
:101250008B232B604FF0FF301BB030BD4FF4027377
:10126000ADF80C3014BF04F1FF332346029305930D
:101270004FF6FF7300910491ADF80E3002461E9BAD
:101280006946284600F072F8431CBCBF8B232B60D4
:10129000002CE1D0009B00221A70DDE707B5009317
:1012A00013460A46014603480068FFF7CBFF03B028
:1012B0005DF804FB1C0000202DE9F0478E689E427B
:1012C00082460C469046994637D88A8912F4906F28
:1012D00031D0256809696F1A6569022305EB450558
:1012E00095FBF3F509F101033B449D4238BF1D46D0
:1012F000530530D5294600F07DFB064650B90C2336
:10130000CAF80030A38943F04003A3814FF0FF30B7
:10131000BDE8F0873A46216900F0FAFAA38923F480
:10132000906343F08003A381266165613E44ED1B19
:101330002660A5604E464E4500D94E46324641468F
:10134000206800F0F0FAA3689B1BA36023681E448A
:1013500026600020DCE72A4600F0A6FB06460028AF
:10136000E2D12169504600F0F7FAC8E72DE9F04FC5
:101370009DB0804603938B891D060C4616460FD5FB
:101380000B696BB9402100F035FB2060206128B962
:101390000C23C8F800304FF0FF30C7E040236361F2
:1013A0000023099320238DF8293030238DF82A302B
:1013B0004FF0010B37463D4615F8013B0BB1252B8D
:1013C0003ED1B7EB060A0BD0534632462146404683
:1013D000FFF772FF013000F0A480099B534409938A
:1013E0003B78002B00F09D8000234FF0FF32CDE9C9
:1013F0000523049307938DF853301A932F46052243
:1014000017F8011B4F4800F033FA049BD0B9D906F6
:1014100044BF20228DF853201A0744BF2B228DF899
:1014200053202A782A2A15D0079A2F4600200A2509
:10143000394611F8013B303B092B4DD9B8B10FE0CB
:101440002F46B8E73F4A801A0BFA00F01843049081
:101450003D46D3E7039A111D12680391002A01DB70
:10146000079204E0524243F00203079204933B7850
:101470002E2B0CD17B782A2B33D1039B1A1D1B6892
:101480000392002BB8BF4FF0FF33023705932E4D68
:1014900039780322284600F0EBF938B14023401B8D
:1014A00003FA00F0049B034301370493397827487B
:1014B0008DF8281006227E1C00F0DAF9002838D0BA
:1014C000234B13BB039B073323F00703083303931A
:1014D000099B4B4409936DE705FB023201200F463F
:1014E000A6E700230137059319460A25384610F868
:1014F000012B303A092A03D9002BC8D00591C6E741
:1015000005FB012101230746F0E703AB00932246C8
:10151000104B04A94046AFF30080B0F1FF3F814675
:10152000D6D1A3895B063FF536AF09981DB0BDE85B
:10153000F08F03AB00932246064B04A9404600F00F
:1015400081F8EAE7581D00085E1D0008621D0008CA
:1015500000000000B91200082DE9F04791461F462F
:101560008A680B69DDF820809342B8BF1346C9F83A
:10157000003091F8432006460C4612B10133C9F8F9
:1015800000302368990642BFD9F800300233C9F809
:101590000030256815F0060507D104F1190AE36843
:1015A000D9F800209B1AAB4228DC94F8433022681B
:1015B000003318BF012392062DD404F143023946AB
:1015C0003046C047013020D02368E568D9F80020B4
:1015D00003F00603042B08BFAD1AA36822690CBFF1
:1015E00025EAE57500259342C4BF9B1AED184FF01C
:1015F00000091A344D451AD1002008E00123524653
:1016000039463046C047013003D14FF0FF30BDE8C6
:10161000F0870135C3E7E1185A1C302081F84300F8
:10162000224494F8451082F843100233C5E70123A1
:10163000224639463046C0470130E6D009F101095B
:10164000D8E700002DE9F04301F1430C0C46097E78
:1016500085B06E291746064698460C9A00F0B3806E
:1016600022D8632936D00AD8002900F0B980582939
:1016700000F0838004F1420584F8421032E06429CE
:1016800001D06929F6D120681368050603F1040129
:101690002AD51B681160002B03DA2D225B4284F8E7
:1016A00043206F480A2239E0732900F09D8008D852
:1016B0006F2920D07029DDD1236843F020032360F7
:1016C00003E0752917D07829D4D1782384F84530E0
:1016D000644855E01368191D1B68116004F1420548
:1016E00084F8423001238CE01B68116010F0400F39
:1016F00018BF1BB2CFE713682568181D10602806B5
:1017000001D51B6802E06806FBD51B8854486F2989
:1017100014BF0A220822002184F843106568A560DE
:10172000002DC0F29580216821F004012160002B7A
:101730003DD1002D40F08E806546082A0BD12368EC
:10174000DB0708D5236962689A42DEBF302305F8BB
:10175000013C05F1FF35ACEB05032361CDF80080BA
:101760003B4603AA21463046FFF7F6FE01304DD135
:101770004FF0FF3005B0BDE8F083394884F84510DC
:10178000136821681D1D1B6815600A060BD5CA0762
:1017900044BF41F0200121601BB9226822F02002E1
:1017A00022601022B7E74D0648BF9BB2EFE76546BF
:1017B000B3FBF2F102FB1133C35C05F8013D0B46AC
:1017C0000029F5D1B9E7136825686169181D106013
:1017D00028061B6801D5196002E06A06FBD519804E
:1017E000002323616546B9E71368191D11601D6860
:1017F00062680021284600F03BF808B1401B606099
:1018000063682361002384F84330A7E723692A46ED
:1018100039463046C0470130AAD023689B0713D40D
:10182000E068039B9842B8BF1846A3E701234A46E5
:1018300039463046C04701309AD00135E368039AF3
:101840009B1AAB42F2DCEBE7002504F11909F5E73E
:10185000002BACD1037884F8423004F142056CE7E8
:10186000691D00087A1D000800000000000000004B
:1018700001F0FF01102A2BDB10F0070F08D010F841
:10188000013B013A8B422DD010F0070F42B3F6D145
:10189000F0B441EA012141EA014122F007047FF05E
:1018A00000070023F0E80256083C85EA010586EAB5
:1018B000010685FA47F5A3FA87F586FA47F6A5FAF1
:1018C00087F68EB9EED1F0BC01F0FF0102F00702FD
:1018D00032B110F8013B013A83EA010313B1F8D1A8
:1018E0000020704701387047002D06BF3546033889
:1018F000073815F0010F07D1013015F4807F02BFC2
:10190000013015F4C03F0130F0BC0138704700BF12
:1019100010B5431E0A44914200D110BD11F8014B8D
:1019200003F8014FF7E7884210B501EB020307D82F
:10193000421E99420AD011F8014B02F8014FF8E714
:101940008342F5D98118D21AD34200D110BD13F8C1
:10195000014D01F8014DF7E738B50546002945D09E
:1019600051F8043C0C1F002BB8BFE41800F0D2F86B
:101970001F4A1368104633B9636014602846BDE8F7
:10198000384000F0C8B8A3420CD9216862189342CD
:1019900004BF1A685B68636004BF52182260046069
:1019A000ECE713465A680AB1A242FAD919685818E6
:1019B000A0420BD120680144581882421960DDD141
:1019C000106852685A6001441960D7E702D90C23A5
:1019D0002B60D3E7206821188A4204BF116852683F
:1019E000626004BF091821605C60C7E738BD00BFB2
:1019F0007801002070B5CD1C25F0030508350C2DAD
:101A000038BF0C25002D064601DBA94203D90C2363
:101A10003360002070BD00F07DF8214A1468214633
:101A200091B9204C23681BB9304600F063F8206060
:101A30002946304600F05EF8431C24D10C23336065
:101A4000304600F068F8E4E70B685B1B18D40B2BFA
:101A50000FD90B60CD50CC18304600F05CF804F183
:101A60000B00231D20F00700C31AD3D05A42E250C6
:101A7000D0E78C424B6816BF636013600C46EBE7FF
:101A80000C464968CCE7C41C24F00304A04205D0EE
:101A9000211A304600F02EF80130CFD02560DBE768
:101AA000780100207C010020F8B5074614460E4658
:101AB00021B91146BDE8F840FFF79CBF22B9FFF7F6
:101AC0004BFF25462846F8BD00F026F8A0420FD26D
:101AD00021463846FFF78EFF05460028F2D03146F2
:101AE0002246FFF715FF31463846FFF735FFE9E795
:101AF0003546E7E738B5064C00230546084623601F
:101B0000FEF790FC431C02D1236803B12B6038BD63
:101B1000800100207047704751F8043C181F002BCB
:101B2000BCBF0B58C0187047537461636B2066725A
:101B3000616D653A0A000000205230203D202025CA
:101B40003038580A00000000205231203D20202566
:101B50003038580A00000000205232203D20202555
:101B60003038580A00000000205233203D20202544
:101B70003038580A0000000020523132203D202524
:101B80003038580A00000000204C52203D2020250B
:101B90003038580A00000000205043203D20202506
:101BA0003038580A0000000020505352203D2025B4
:101BB0003038580A000000004653522F4641523A2E
:101BC0000A0000002043465352203D202025303893
:101BD000580A00002048465352203D202025303826
:101BE000580A00002044465352203D20202530381A
:101BF000580A00002041465352203D20202530380D
:101C0000580A0000204D4D464152203D20253038D5
:101C1000580A00002042464152203D2020253038FD
:101C2000580A00004D6973630A000000204C522FCF
:101C30004558435F52455455524E3D202530385843
:101C40000A0000005B486172644661756C745D0A4D
:101C5000000000005B4275734661756C745D0A009C
:101C60005B55736167654661756C745D0A000000C1
:101C7000000000000000000001020304060708093C
:101C8000496E76616C6964204170706C696361743F
:101C9000696F6E20496E6465780000004A756D704A
:101CA000696E6720746F204170706C69636174693C
:101CB0006F6E2031000000004A756D70696E6720FC
:101CC000746F204170706C69636174696F6E20324B
:101CD00000000000466C617368696E672041707097
:101CE0006C69636174696F6E20310000466C6173CA
:101CF00068696E67204170706C69636174696F6EAA
:101D000020320000637263206661756C74200000ED
:101D100063726320636F7272656374200000000059
:101D2000657261736520736563746F722032200081
:101D3000657261736520736563746F72203420006F
:101D4000434F52544558204D342053544D3332465E
:101D50003430314343200000232D302B2000686CA9
:101D60004C006566674546470030313233343536BE
:101D700037383941424344454600303132333435F7
:0B1D8000363738396162636465660025
:101D8C00785634128C000020000000000024F4006F
:101D9C000080000800C0000800000108200000209E
:101DAC000000000000000000000000000000000027
:101DBC000000000000000000000000000000000017
:101DCC000000000000000000000000000000000007
:101DDC0000000000000000000000000000000000F7
:101DEC0000000000000000000000000000000000E7
:101DFC0000000000000000000000000000000000D7
:041E0C00325476983E
:040000050800019559
:00000001FF
