:020000040800F2
:1000000000000120C5020008CB020008CF02000852
:1000100041030008450300088D03000800000000AC
:10002000000000000000000000000000D5030008F0
:10003000D903000800000000DD030008250E0008B9
:10004000F1030008F1030008F1030008F1030008C0
:10005000F1030008F1030008010800081D0800086A
:100060003908000855080008F1030008F1030008EA
:10007000F1030008F1030008F1030008F103000890
:10008000F1030008F1030008F1030008000000007C
:10009000000000000000000000000000F103000864
:1000A000F1030008F1030008F1030008F103000860
:1000B000F1030008F1030008F1030008F103000850
:1000C000F1030008F1030008F1030008F103000840
:1000D000F1030008F1030008F1030008000000002C
:1000E000F1030008F1030008F1030008000000001C
:1000F000000000000000000000000000F103000804
:1001000000000000F1030008F1030008F1030008FB
:1001100000000000000000000000000000000000DF
:10012000F1030008F1030008F1030008F1030008DF
:10013000F1030008000000000000000000000000C3
:10014000000000000000000000000000F1030008B3
:1001500021070008F1030008F1030008F10300087B
:10016000F1030008F1030008000000000000000097
:10017000000000000000000000000000000000007F
:1001800000000000F1030008000000000000000073
:10019000F103000800B583B000F0BAF9384B394AD2
:1001A0001360394A1360394900E02146384B9942BF
:1001B0000BD20A684B6801F10C0488689842F4D9A4
:1001C0001168196004330432F8E72E4B1A68314B7A
:1001D0009A4200D0FEE72C4B1A682F4B9A42F9D175
:1001E000274B2E4A13602E4A13602E4B05E0002049
:1001F000106004329342FAD80B462B4A934204D241
:10020000194651F8082B5B68F4E7244B1B6813B9B7
:10021000234B1B6803B1FEE700F086F9694601A88D
:1002200000F022F9214C224BE41AA4100025AC4224
:1002300014DC204C204BE41AA4100025AC4213DC43
:100240000099019800F03EFF05461C4C1C4BE41A37
:10025000A410002C0EDC284600F0E2F8144B53F8F2
:10026000253098470135E2E7134B53F8253098477E
:100270000135E3E7013C124B53F824309847E8E797
:10028000BABADECA00000020100A0020F4030008F9
:100290000C0400087856341232547698140A002060
:1002A000200B00200C0400081C0400081C0400089B
:1002B0001C0400081C0400081C0400081C0400089E
:1002C0001C04000808B5FFF765FF00BEFEE71EF03E
:1002D000040F0CBFEFF30880EFF309807146414A29
:1002E00010472DE9F04182B004468846124B5E6B00
:1002F0009F6B9D6A1B6B13F0020F03D00E4BDB6AE2
:10030000002B0CDB0D4800F0B7F8CDF800803B4621
:1003100032462946204600F00BF900BEFEE74BF6B8
:10032000AB6100F07FF90028ECD0034B4FF00042A6
:10033000DA6202B0BDE8F08100ED00E0041E0008C2
:1003400000BEFEE71EF0040F0CBFEFF30880EFF3D2
:1003500009807146244A10472DE9F04182B00446D5
:100360008846084B5E6B9F6B9D6A074800F084F8D7
:10037000CDF800803B4632462946204600F0D8F8AA
:1003800000BEFEE700ED00E0141E00081EF0040FA2
:100390000CBFEFF30880EFF309807146134A104752
:1003A0002DE9F04182B004468846084B5E6B9F6B96
:1003B0009D6A074800F060F8CDF800803B46324661
:1003C0002946204600F0B4F800BEFEE700ED00E04C
:1003D000201E000800BEFEE700BEFEE700BEFEE7EE
:1003E00070470000E302000859030008A103000859
:0403F00000BEFEE766
:1003F4008C87000800000020140A00208C87000865
:100404000000001000000010140A0020240B00203B
:080414000000001000000010C0
:10042000FEE7000008B503460C4A12685AB10B4AB1
:100430001068033323F003030344094A934206D8A8
:10044000064A136008BD054A06491160EFE700F04F
:10045000D1FF0C2303604FF0FF30F3E7180A0020B0
:1004600000FC0020240B002001230360014B0B60E3
:10047000704700BF040000200FB400B583B004AB88
:1004800053F8042B01938021064800F0E5FF002873
:1004900003DD0146034800F037F803B05DF804EBD4
:1004A00004B07047200A00202DE9F04385B00446CF
:1004B0000F4643560BB10E461EE004252846214642
:1004C000ABBE0446384605B0BDE8F08314F9011B05
:1004D00004AA1A4402F8101C0133AB42F6D304AA52
:1004E0001344002203F8102C4FF00408E94640465C
:1004F0004946ABBE8046761B002EE3D03546102E13
:1005000028BF10250023E8E708B5FFF7CDFF08BD99
:1005100008B500F097F8024A024B9A6008BD00BF88
:100520000000000800ED00E008B500F0ABF808BDE1
:10053000F8B504460D4617461E462748FFF79CFFB0
:1005400021682648FFF798FF61682548FFF794FF68
:10055000A1682448FFF790FFE1682348FFF78CFF6C
:1005600021692248FFF788FF61692148FFF784FF6E
:10057000A1692048FFF780FFE1691F48FFF77CFF72
:100580001E48FFF779FF29461D48FFF775FF1D4CF0
:10059000E16A1D48FFF770FF216B1C48FFF76CFFF5
:1005A000E16B1B48FFF768FF15F0800F0AD115F4C7
:1005B000004F0CD11748FFF75FFF06991648FFF769
:1005C0005BFFF8BD39461548FFF756FFEFE73146A8
:1005D0001348FFF751FFEDE7E81C0008F81C00087E
:1005E000081D0008181D0008281D0008381D0008F7
:1005F000481D0008581D0008681D0008781D0008E7
:10060000841D000800ED00E0941D0008A41D0008F2
:10061000B41D0008E41D0008EC1D0008C41D0008FE
:10062000D41D000883691A888A4201D000207047CF
:100630000268033A012A03D802338361012070471C
:10064000002070470C4B1A6842F001021A6000212A
:1006500099601A6822F0847222F480321A60074A84
:100660005A601A6822F480221A60D960044B4FF055
:1006700000629A60704700BF0038024010300024CA
:1006800000ED00E0224B9B6803F00C03042B14D018
:10069000082B16D01BB11F4B1F4A1A6002E01D4BDE
:1006A0001D4A1A601A4B9B68C3F303131B4AD15CA3
:1006B000184A1368CB4013607047164B164A1A60ED
:1006C000F0E7134B5A685B6803F03F0312F4800FA6
:1006D00013D0114AB2FBF3F20D4B5B68C3F38813DE
:1006E00003FB02F30A4A5268C2F30142013252008C
:1006F000B3FBF2F3074A1360D4E7074AB2FBF3F205
:10070000034B5B68C3F3881303FB02F3EAE700BF04
:10071000003802400C0000200024F400301E0008C5
:1007200008B5074B5B6813F4006F07D0054B5B6996
:100730009847034AD36843F40063D36008BD00BF01
:1007400000640240A00A002030B483080A4A023341
:1007500052F8234000F0030080000F25854024EA72
:10076000050442F8234052F823408140214342F8D7
:10077000231030BC704700BF0038014003490B68AC
:10078000012202FA00F003430B607047003C014075
:1007900001290FD011B1022918D07047114BD96827
:1007A000012202FA00F021EA0001D9609A681043A0
:1007B000986070470B4B9968012202FA00F021EA19
:1007C00000019960DA681043D8607047054A916863
:1007D000012303FA00F001439160D3681843D0600D
:1007E000704700BF003C0140014B1860704700BFDC
:1007F000C00A0020014B5860704700BFC00A0020AB
:1008000008B5044B1B689847034A536943F001033A
:10081000536108BDC00A0020003C014008B5044BEC
:100820005B689847034A536943F00203536108BD6C
:10083000C00A0020003C014008B5044B9B68984763
:10084000034A536943F00403536108BDC00A002002
:10085000003C014008B5044BDB689847034A5369E4
:1008600043F00803536108BDC00A0020003C01406A
:10087000002308E0054802680121994022EA0102AC
:1008800002600133DBB20F2BF4D97047003C01400A
:10089000002307E005480268012199400A430260ED
:1008A0000133DBB20F2BF5D9704700BF003C01408C
:1008B000154BDB6813F4803FFAD1134B1B69002BF7
:1008C0001BDB114B1A6922F078021A611A6942EA9D
:1008D000C00018611A6942F002021A611A6942F4F2
:1008E00080321A61084BDB6813F4803FFAD1064A64
:1008F000136923F0020313617047034B034A5A60E4
:1009000002F188325A60DCE7003C0240230167456F
:1009100030B4194BDB6813F4803FFAD1164B1B69D6
:10092000002B0ADB144B1C6924F440741C611C6905
:1009300044F480741C6100241AE00F4B0F4C5C607F
:1009400004F188345C60EDE70B4D2B6943F0010343
:100950002B6131F8143020F8023B074BDB6813F4AD
:10096000803FFAD1044D2B6923F001032B61013440
:10097000A242E9D830BC7047003C024023016745E1
:1009800010B4012812D018B102281DD010BC704735
:10099000144B1868490003248C4020EA04001860B6
:1009A000186802FA01F101431960EFE70E4B18686D
:1009B000490003248C4020EA04001860186802FAF9
:1009C00001F101431960E1E7084B1868490003246D
:1009D0008C4020EA04001860186802FA01F1014313
:1009E0001960D3E700000240000402400008024002
:1009F00010B4012812D018B102281DD010BC7047C5
:100A0000144BD868490003248C4020EA0400D860C5
:100A1000D86802FA01F10143D960EFE70E4BD868BC
:100A2000490003248C4020EA0400D860D86802FA08
:100A300001F10143D960E1E7084BD868490003247C
:100A40008C4020EA0400D860D86802FA01F1014322
:100A5000D960D3E7000002400004024000080240D1
:100A6000012817D010B1022827D07047012A0AD0D8
:100A7000002A2DD11A484369012202FA01F123EA22
:100A80000101416170471648436902FA01F11943B7
:100A900041617047012A09D0D2B912484369012245
:100AA00002FA01F123EA0101416170470D484369EF
:100AB00002FA01F1194341617047012A09D03AB99C
:100AC00009484369012202FA01F123EA0101416167
:100AD00070470548436902FA01F1194341617047C3
:100AE00000000240000402400008024030B4012827
:100AF0001CD018B1022831D030BC7047234844685C
:100B000001258D4024EA0504446044688A4022435C
:100B1000426082684C000321A14022EA0102826007
:100B2000826803FA04F111438160E5E718484468DC
:100B300001258D4024EA0504446044688A4022432C
:100B4000426084684A000321914024EA01018160E7
:100B5000846803FA02F121438160CDE70D484468BF
:100B600001258D4024EA0504446044688A402243FC
:100B700042608268490003248C4022EA04028260B9
:100B8000826803FA01F111438160B5E70000024079
:100B9000000402400008024010B4072930D80128A0
:100BA00012D018B102281DD010BC7047304B186A03
:100BB0008C000F21A14020EA01011962186A02FA93
:100BC00004F101431962EFE72A4B1C6A88000F21E8
:100BD000814024EA010119621C6A02FA00F12143F2
:100BE0001962E1E7244B186A89000F248C4020EA3F
:100BF00004001862186A02FA01F101431962D3E78E
:100C0000A1F10803DBB2072BCED8012820D080B198
:100C10000228C9D1184B586A083989000F248C4022
:100C200020EA04005862586A02FA01F1014359624D
:100C3000BAE70F4B586A083989000F248C4020EA24
:100C400004005862586A02FA01F101435962ABE7A5
:100C5000084B586A083989000F248C4020EA0400A8
:100C60005862586A02FA01F1014359629CE700BFD9
:100C700000000240000402400008024010B4440991
:100C8000064951F8243000F01F00012202FA00F05A
:100C9000184341F8240010BC704700BF00E100E099
:100CA000084A136843F001031360064B1B6813F0F6
:100CB000020FFAD0034B9A6822F003029A609A68F6
:100CC0009A60704700380240032822D8DFE800F01D
:100CD000020A121A0F48036B012202FA01F11943AA
:100CE000016370470B48436B012202FA01F119437B
:100CF000416370470748036C012202FA01F119436E
:100D0000016470470348436C012202FA01F1194360
:100D10004164704700380240044B586000229A60DA
:100D20001A6842F001021A60704700BF10E000E04C
:100D3000024B1868C0F30040704700BF10E000E0AD
:100D400010B1012806D07047054A136843F002032A
:100D500013607047024A136823F002031360704760
:100D600010E000E070B505460120FFF7E9FF42F210
:100D7000C4039D4213D9294BA3FB05235B0B42F20D
:100D8000C40202FB13538BB3244CA4FB05256D0B4B
:100D90000135A4FB0334640B2406002618E04FF44D
:100DA000FA6000FB05F0FFF7B7FFFFF7C1FF00286F
:100DB000FBD01B4A136823F00103136015E06FF0AA
:100DC0007F40FFF7A9FFFFF7B3FF0028FBD0013DED
:100DD00035B1002EF3D12046FFF79EFF0126F2E742
:100DE0000F4A136823F00103136070BD0B4BA3FB84
:100DF00005356D0B002408E06FF07F40FFF78CFF96
:100E0000FFF796FF0028FBD00134AC42F4D3044A2C
:100E1000136823F001031360E7E700BF97A304FA08
:100E200010E000E008B5074B1B689847FFF780FF0C
:100E3000054B1B78012B00D008BD0120FFF780FF78
:100E4000FAE700BF100B0020000B0020104BDA68FF
:100E50006FF3CF32DA6040F283629A60DA686FF340
:100E60000C32DA60DA686FF38A22DA60DA6842F00C
:100E70000802DA60DA6842F00402DA605A6942F085
:100E800040025A61DA6842F40052DA600120704789
:100E900000100140064B1B6813F0800FFAD0044B82
:100EA0005860034B1B6813F0400FFAD001207047C5
:100EB0000010014038B50546002403E0FFF7EAFFC3
:100EC0000134E4B2285D0028F8D10A20FFF7E2FFE0
:100ED0000D20FFF7DFFF38BD044B1B6813F0200F18
:100EE000FAD0024B5868C0B2704700BF00100140F2
:100EF0000246A0F13003D8B2092802D9A2F1370086
:100F0000C0B270472DE9F04786B0054690F9010060
:100F1000C0B2FFF7EDFF064695F90200C0B2FFF739
:100F2000E7FF40EA0616F6B295F90300C0B2FFF7F4
:100F3000DFFF814695F90400C0B2FFF7D9FF804674
:100F400095F90500C0B2FFF7D3FF044695F90600F6
:100F5000C0B2FFF7CDFF244B1F6847EA093747EAC5
:100F6000082747EA041707430024019402940394D6
:100F7000049405942DE04FEA840A0AF10903E85627
:100F8000C0B2FFF7B5FF81460AF10A03E856C0B2C6
:100F9000FFF7AEFF80460AF10B0A15F90A00C0B24E
:100FA000FFF7A6FF8246E31C15F92300C0B2FFF746
:100FB0009FFF000240EA0A3000B240EA091000B286
:100FC00040EA080006AB03EB440323F8140C013499
:100FD000E4B27208A242CED801A93846FFF798FCC5
:100FE00006B0BDE8F08700BF140B0020F8B5054639
:100FF00090F90800C0B2FFF77BFF10B1042804D0BD
:10100000F8BD2846FFF77EFFFAE795F90900C0B260
:10101000FFF76EFF074695F90A00C0B2FFF768FFB9
:10102000044695F90B00C0B2FFF762FF064695F93A
:101030000C00C0B2FFF75CFF240244EA073444EA24
:10104000061404432404014B1C60D9E7140B002050
:1010500008B5022813D8104B53F820100F4A11601E
:1010600053F820301A6882F308885A680C4B1A60CB
:1010700048B102280BD00A4B1B68984708BD0948A5
:10108000FFF718FFFAE70848FFF714FFF3E70748F0
:10109000FFF710FFEFE700BF1000002008ED00E0B1
:1010A000180B0020401E00085C1E0008781E000877
:1010B00008B50020FFF7CCFF08BD08B50220FFF7F8
:1010C000C7FF08BD2DE9F04784B0012484F31088E0
:1010D000FFF7E6FD00210846FFF7F6FD2146002058
:1010E000FFF7F2FD04210320FFF7EEFD0E210320A0
:1010F000FFF7EAFDFFF7AAFE022209210020FFF711
:101100003FFC072209210020FFF746FD02220A21A9
:101110000020FFF735FC07220A210020FFF73CFDE5
:1011200022460D210020FFF72BFC00231A460D213B
:101130001846FFF7DBFC00240CE0E5B2012229464B
:101140000020FFF71DFC00231A4629461846FFF72A
:10115000CDFC0134072CF0DD002211460120FFF701
:101160000FFC012200211046FFF742FC0022012162
:101170000846FFF705FC012211461046FFF738FC30
:101180000620FFF77BFD0720FFF778FD01210020F7
:10119000FFF7DAFA01210846FFF7D6FA012100200D
:1011A000FFF7F6FA01210846FFF7F2FA8248FFF747
:1011B0001BFB8248FFF71EFB0020FFF7DFFA012030
:1011C000FFF7DCFA002383F31088FFF785FE6D2814
:1011D0003BD0FFF75DFB01220D210020FFF740FC13
:1011E0004FF4FA60FFF7BEFD00220D211046FFF715
:1011F00037FC4FF4FA60FFF7B5FDECE72F38C0B2CB
:10120000FFF756FBFFF768FE662816D068283CD02B
:101210007028F7D1FFF760FE8046FFF75DFE0446B9
:10122000FFF75AFE664B1F6847EA0427074300246E
:10123000009401940294039446E016BB2E20FFF71D
:1012400029FE06BB5F48FFF735FEFFF711FBFFF7EE
:1012500043FE04467328BCD0A0F13106F6B2022E3C
:10126000CCD9632839D0712837D065287AD07A282C
:1012700000F08B80762800F09B805348FFF71AFE21
:10128000E3E72C20DBE75148DDE7FFF725FE0446C6
:10129000FFF722FE40EA04231B04494A1360B1E72A
:1012A000FFF71AFE0546FFF717FE45EA002292B245
:1012B00004AB03EB440323F8102CD2B221460020E8
:1012C000FFF7CEFB0134E4B2C8F34702A242E7D8ED
:1012D00069463846FFF71CFB94E7FFF7FDFD8146A2
:1012E000FFF7FAFD40EA09294FF00008464612E0F0
:1012F000FFF7F2FD0544EDB20237FFB2AAF1020397
:101300009F42F5DB6D42EDB2FFF7E6FD854200D06E
:10131000012608F10108C84505DAFFF7DDFD824620
:1013200001270025EAE7632C04D11EB12848FFF706
:10133000C1FD8AE7632C04D11EB92648FFF7BAFD28
:1013400083E7712C04D11EB12348FFF7B3FD7CE77E
:10135000712C7FF47AAF002E7FF477AF1F48FFF730
:10136000A9FD72E70220FFF7A3FA002406E01C4B58
:1013700053F82400FFF73AFE0134A4B2B4F5997F84
:10138000F5D31848FFF796FD5FE70420FFF790FAC2
:10139000002406E0144B53F82400FFF727FE013425
:1013A000A4B2B4F5997FF5D31048FFF783FD4CE75D
:1013B0000F48FFF77FFD48E7B1100008BB10000899
:1013C0001C0B0020941E0008641F0008AC1E0008BF
:1013D000C41E0008DC1E0008F81E0008101F0008CC
:1013E000E40400202C1F00081C0000203C1F000803
:1013F0004C1F0008014B1868704700BFAC09002063
:1014000030B5141E05469BB0184605DA8B232B60B9
:101410004FF0FF301BB030BD4FF40273ADF80C300D
:1014200014BF04F1FF332346029305934FF6FF7375
:1014300000910491ADF80E3002461E9B6946284685
:1014400000F072F8431CBCBF8B232B60002CE1D052
:10145000009B00221A70DDE707B5009313460A4689
:10146000014603480068FFF7CBFF03B05DF804FBBB
:10147000AC0900202DE9F0478E689E4282460C465A
:101480009046994637D88A8912F4906F31D02568F2
:1014900009696F1A6569022305EB450595FBF3F5AC
:1014A00009F101033B449D4238BF1D46530530D529
:1014B000294600F07FFB064650B90C23CAF80030DD
:1014C000A38943F04003A3814FF0FF30BDE8F087CC
:1014D0003A46216900F0FCFAA38923F4906343F0B3
:1014E0008003A381266165613E44ED1B2660A560F3
:1014F0004E464E4500D94E4632464146206800F0E1
:10150000F2FAA3689B1BA36023681E442660002098
:10151000DCE72A4600F0A8FB06460028E2D1216954
:10152000504600F0F9FAC8E72DE9F04F9DB080462B
:1015300003938B891D060C4616460FD50B696BB9B4
:10154000402100F037FB2060206128B90C23C8F847
:1015500000304FF0FF30C7E0402363610023099360
:1015600020238DF8293030238DF82A304FF0010BDD
:1015700037463D4615F8013B0BB1252B3ED1B7EB65
:10158000060A0BD05346324621464046FFF772FF0B
:10159000013000F0A480099B534409933B78002B51
:1015A00000F09D8000234FF0FF32CDE90523049326
:1015B00007938DF853301A932F46052217F8011B15
:1015C0004F4800F035FA049BD0B9D90644BF202219
:1015D0008DF853201A0744BF2B228DF853202A7808
:1015E0002A2A15D0079A2F4600200A25394611F8D5
:1015F000013B303B092B4DD9B8B10FE02F46B8E77E
:101600003F4A801A0BFA00F0184304903D46D3E796
:10161000039A111D12680391002A01DB079204E06E
:10162000524243F00203079204933B782E2B0CD1D5
:101630007B782A2B33D1039B1A1D1B680392002B46
:10164000B8BF4FF0FF33023705932E4D3978032290
:10165000284600F0EDF938B14023401B03FA00F0B2
:10166000049B034301370493397827488DF82810E9
:1016700006227E1C00F0DCF9002838D0234B13BB77
:10168000039B073323F0070308330393099B4B4461
:1016900009936DE705FB023201200F46A6E7002300
:1016A0000137059319460A25384610F8012B303AC0
:1016B000092A03D9002BC8D00591C6E705FB0121F3
:1016C00001230746F0E703AB00932246104B04A921
:1016D0004046AFF30080B0F1FF3F8146D6D1A389E9
:1016E0005B063FF536AF09981DB0BDE8F08F03AB40
:1016F00000932246064B04A9404600F081F8EAE731
:10170000588700085E870008628700080000000014
:10171000751400082DE9F04791461F468A680B6949
:10172000DDF820809342B8BF1346C9F8003091F825
:10173000432006460C4612B10133C9F80030236835
:10174000990642BFD9F800300233C9F80030256845
:1017500015F0060507D104F1190AE368D9F800204D
:101760009B1AAB4228DC94F843302268003318BF40
:10177000012392062DD404F1430239463046C04776
:10178000013020D02368E568D9F8002003F0060373
:10179000042B08BFAD1AA36822690CBF25EAE575C2
:1017A00000259342C4BF9B1AED184FF000091A346C
:1017B0004D451AD1002008E00123524639463046F3
:1017C000C047013003D14FF0FF30BDE8F08701354D
:1017D000C3E7E1185A1C302081F84300224494F8F2
:1017E000451082F843100233C5E7012322463946EB
:1017F0003046C0470130E6D009F10109D8E70000C2
:101800002DE9F04301F1430C0C46097E85B06E29A9
:101810001746064698460C9A00F0B38022D86329F2
:1018200036D00AD8002900F0B980582900F083800A
:1018300004F1420584F8421032E0642901D069299C
:10184000F6D120681368050603F104012AD51B6848
:101850001160002B03DA2D225B4284F843206F488D
:101860000A2239E0732900F09D8008D86F2920D022
:101870007029DDD1236843F02003236003E075293C
:1018800017D07829D4D1782384F84530644855E0BE
:101890001368191D1B68116004F1420584F8423079
:1018A00001238CE01B68116010F0400F18BF1BB2C1
:1018B000CFE713682568181D1060280601D51B683E
:1018C00002E06806FBD51B8854486F2914BF0A2222
:1018D0000822002184F843106568A560002DC0F23D
:1018E0009580216821F004012160002B3DD1002D5D
:1018F00040F08E806546082A0BD12368DB0708D5A7
:10190000236962689A42DEBF302305F8013C05F185
:10191000FF35ACEB05032361CDF800803B4603AAFD
:1019200021463046FFF7F6FE01304DD14FF0FF3033
:1019300005B0BDE8F083394884F845101368216884
:101940001D1D1B6815600A060BD5CA0744BF41F070
:10195000200121601BB9226822F02002226010229F
:10196000B7E74D0648BF9BB2EFE76546B3FBF2F120
:1019700002FB1133C35C05F8013D0B460029F5D18C
:10198000B9E7136825686169181D106028061B688F
:1019900001D5196002E06A06FBD519800023236196
:1019A0006546B9E71368191D11601D68626800215A
:1019B000284600F03DF808B1401B60606368236171
:1019C000002384F84330A7E723692A463946304686
:1019D000C0470130AAD023689B0713D4E068039B5B
:1019E0009842B8BF1846A3E701234A463946304615
:1019F000C04701309AD00135E368039A9B1AAB4285
:101A0000F2DCEBE7002504F11909F5E7002BACD176
:101A1000037884F8423004F142056CE769870008D6
:101A20007A870008000000000000000000000000AD
:101A300001F0FF01102A2BDB10F0070F08D010F87F
:101A4000013B013A8B422DD010F0070F42B3F6D183
:101A5000F0B441EA012141EA014122F007047FF09C
:101A600000070023F0E80256083C85EA010586EAF3
:101A7000010685FA47F5A3FA87F586FA47F6A5FA2F
:101A800087F68EB9EED1F0BC01F0FF0102F007023B
:101A900032B110F8013B013A83EA010313B1F8D1E6
:101AA0000020704701387047002D06BF35460338C7
:101AB000073815F0010F07D1013015F4807F02BF00
:101AC000013015F4C03F0130F0BC0138704700BF51
:101AD00010B5431E0A44914200D110BD11F8014BCC
:101AE00003F8014FF7E7884210B501EB020307D86E
:101AF000421E99420AD011F8014B02F8014FF8E753
:101B00008342F5D98118D21AD34200D110BD13F8FF
:101B1000014D01F8014DF7E738B50546002945D0DC
:101B200051F8043C0C1F002BB8BFE41800F0D2F8A9
:101B30001F4A1368104633B9636014602846BDE835
:101B4000384000F0C8B8A3420CD92168621893420B
:101B500004BF1A685B68636004BF521822600460A7
:101B6000ECE713465A680AB1A242FAD91968581824
:101B7000A0420BD120680144581882421960DDD17F
:101B8000106852685A6001441960D7E702D90C23E3
:101B90002B60D3E7206821188A4204BF116852687D
:101BA000626004BF091821605C60C7E738BD00BFF0
:101BB000040B002070B5CD1C25F0030508350C2D55
:101BC00038BF0C25002D064601DBA94203D90C23A2
:101BD0003360002070BD00F07DF8214A1468214672
:101BE00091B9204C23681BB9304600F063F820609F
:101BF0002946304600F05EF8431C24D10C233360A4
:101C0000304600F068F8E4E70B685B1B18D40B2B38
:101C10000FD90B60CD50CC18304600F05CF804F1C1
:101C20000B00231D20F00700C31AD3D05A42E25004
:101C3000D0E78C424B6816BF636013600C46EBE73D
:101C40000C464968CCE7C41C24F00304A04205D02C
:101C5000211A304600F02EF80130CFD02560DBE7A6
:101C6000040B0020080B0020F8B5074614460E466A
:101C700021B91146BDE8F840FFF79CBF22B9FFF734
:101C80004BFF25462846F8BD00F026F8A0420FD2AB
:101C900021463846FFF78EFF05460028F2D0314630
:101CA0002246FFF715FF31463846FFF735FFE9E7D3
:101CB0003546E7E738B5064C00230546084623605D
:101CC000FEF7B0FB431C02D1236803B12B6038BD83
:101CD0000C0B00207047704751F8043C181F002B74
:101CE000BCBF0B58C0187047537461636B20667299
:101CF000616D653A0A000000205230203D20202509
:101D00003038580A00000000205231203D202025A4
:101D10003038580A00000000205232203D20202593
:101D20003038580A00000000205233203D20202582
:101D30003038580A0000000020523132203D202562
:101D40003038580A00000000204C52203D20202549
:101D50003038580A00000000205043203D20202544
:101D60003038580A0000000020505352203D2025F2
:101D70003038580A000000004653522F4641523A6C
:101D80000A0000002043465352203D2020253038D1
:101D9000580A00002048465352203D202025303864
:101DA000580A00002044465352203D202025303858
:101DB000580A00002041465352203D20202530384B
:101DC000580A0000204D4D464152203D2025303814
:101DD000580A00002042464152203D20202530383C
:101DE000580A00004D6973630A000000204C522F0E
:101DF0004558435F52455455524E3D202530385882
:101E00000A0000005B486172644661756C745D0A8B
:101E1000000000005B4275734661756C745D0A00DA
:101E20005B55736167654661756C745D0A000000FF
:101E3000000000000000000001020304060708097A
:101E4000496E76616C6964204170706C696361747D
:101E5000696F6E20496E6465780000004A756D7088
:101E6000696E6720746F204170706C69636174697A
:101E70006F6E2031000000004A756D70696E67203A
:101E8000746F204170706C69636174696F6E203289
:101E900000000000466C617368696E6720417070D5
:101EA0006C69636174696F6E20310000466C617308
:101EB00068696E67204170706C69636174696F6EE8
:101EC000203200004170706C69636174696F6E202C
:101ED0003120435243204661756C74004170706C30
:101EE00069636174696F6E20312043524320436FF0
:101EF00072726563740000004170706C6963617494
:101F0000696F6E203220435243204661756C740025
:101F10004170706C69636174696F6E203220435246
:101F20004320436F727265637400000065726173D1
:101F30006520736563746F7220322000657261736F
:101F40006520736563746F7220342000434F5254D0
:101F50004558204D342053544D33324634303143AC
:101F600043200000496E76616C696420646174618D
:101F70002072656365697665640000003A3032302E
:101F80003030303034303830304632003A3130384A
:101F9000303030303030303030303132304335381E
:101FA00032303030384342383230303038434638BF
:101FB00032303030383532003A313038303130302C
:101FC00030343138333030303834353833303030E5
:101FD00038384438333030303830303030303030CA
:101FE000304143003A3130383032303030303030E8
:101FF00030303030303030303030303030303030E1
:1020000030303030304435383330303038463000BE
:102010003A31303830333030304439383330303082
:102020003830303030303030304444383330303075
:102030003842353837303030383330003A31303884
:102040003034303030463138333030303846313843
:10205000333030303846313833303030384631382C
:1020600033303030383430003A3130383035303079
:102070003046313833303030384631383330303014
:10208000383439383730303038363538373030300A
:10209000383543003A313038303630303046313818
:1020A00033303030384631383330303038463138DC
:1020B0003330303038463138333030303832300019
:1020C0003A313038303730303046313833303030D4
:1020D00038463138333030303846313833303030AC
:1020E0003846313833303030383130003A313038DA
:1020F000303830303046313833303030384631388F
:10210000333030303846313833303030383030309A
:1021100030303030303743003A31303830393030B9
:1021200030303030303030303030303030303030AF
:10213000303030303030303030463138333030307D
:10214000383634003A31303830413030304631386A
:10215000333030303846313833303030384631382B
:102160003330303038463138333030303845300055
:102170003A31303830423030304631383330303018
:1021800038463138333030303846313833303030FB
:102190003846313833303030384430003A31303816
:1021A00030433030304631383330303038463138D3
:1021B00033303030384631383330303038463138CB
:1021C00033303030384330003A31303830443030FA
:1021D00030463138333030303846313833303030B3
:1021E00038463138333030303830303030303030BD
:1021F000303243003A3130383045303030463138B3
:10220000333030303846313833303030384631387A
:1022100033303030383030303030303030314300CF
:102220003A31303830463030303030303030303085
:10223000303030303030303030303030303030309E
:102240003046313833303030383034003A3130387D
:10225000313030303030303030303030304631385E
:10226000333030303846313833303030384631381A
:1022700033303030384642003A3130383131303046
:10228000303030303030303030303030303030304E
:10229000303030303030303030303030303030303E
:1022A000303546003A31303831323030304631380E
:1022B00033303030384631383330303038463138CA
:1022C00033303030384631383330303038354600EE
:1022D0003A313038313330303046313833303030C5
:1022E00038303030303030303030303030303030E6
:1022F0003030303030303030304333003A313038E5
:1023000031343030303030303030303030303030C8
:10231000303030303030303030303030304631389E
:1023200033303030384233003A31303831353030A4
:102330003032313837303030384631383330303061
:102340003846313833303030384631383330303039
:10235000384642003A313038313630303046313844
:102360003330303038463138333030303830303038
:102370003030303030303030303030303031370085
:102380003A31303831373030303030303030303032
:10239000303030303030303030303030303030303D
:1023A0003030303030303030304646003A3130381E
:1023B00031383030303030303030303030463138F5
:1023C0003330303038303030303030303030303002
:1023D00030303030303733003A3130383139303006
:1023E000304631383330303038303042353833428F
:1023F0003030304630424146393338344233393454
:10240000414432003A3130383141303030313336A6
:102410003033393441313336303339343930304563
:10242000303231343633383442393934323346007D
:102430003A31303831423030303042443230413637
:10244000383442363830314631304330343838361B
:102450003839383432463444393234003A3130383D
:102460003143303030313136383139363030343331
:1024700033303433324638453732453442314136D1
:1024800038333134424641003A313038314430300B
:1024900030394134323030443046454537324334A8
:1024A0004231413638324634423941343246394479
:1024B000314635003A3130383145303030323734FA
:1024C000423245344131333630324534413133368E
:1024D00030324534423035453030303230433900C7
:1024E0003A313038314630303031303630303433B4
:1024F0003239333432464144383042343632423451
:102500004139333432303444324331003A31303897
:102510003230303030313934363531463830383277
:102520004235423638463445373234344231423609
:1025300038313342393337003A3130383231303084
:1025400030323334423142363830334231464545F9
:102550003730304630383646393639343630314106
:10256000383044003A313038323230303030304652
:1025700030323246393231344332323442453431EA
:10258000414134313030303235414334324134000E
:102590003A313038323330303031344443323034F1
:1025A00043323034424534314141343130303032BD
:1025B0003541433432313344434333003A313038C8
:1025C00032343030303030393930313938303046CB
:1025D000304341464130353436314334433143345E
:1025E00042453431413330003A31303832353030C1
:1025F0003041343130303032433045444332383466
:102600003630304630453246383134344235334640
:10261000383732003A3130383236303030323533B4
:10262000303938343730313335453245373133344A
:102630004235334638323533303938343746450041
:102640003A31303832373030303031333545334538
:102650003730313343313234423533463832343314
:102660003039383437453845373137003A3130382A
:1026700032383030304241424144454341303030BD
:102680003030303230373430303030323046343819
:1026900033303030383946003A3130383239303022
:1026A00030304338343030303837383536333431E1
:1026B00032333235343736393837383030303032DB
:1026C000303036003A3130383241303030373830FF
:1026D00031303032303043383430303038314338B4
:1026E00034303030383143383430303038344400CE
:1026F0003A31303832423030303143383430303093
:102700003831433834303030383143383430303079
:102710003831433834303030383145003A31303890
:102720003243303030314338343030303830384252
:1027300035464646373635464630304245464545AD
:1027400037314546303345003A3130383244303045
:1027500030303430463043424645464633303838D0
:1027600030454646333039383037313436343134F9
:10277000414139003A31303832453030303130342F
:1027800037324445394630343138324230303434CF
:1027900036383834363132344235453642383000F6
:1027A0003A313038324630303039463642394436A4
:1027B0004131423642313346303032304630334494
:1027C0003030453442444236413632003A313038B6
:1027D0003330303030303032423043444230443491
:1027E0003830304630423746384344463830303847
:1027F00030334234364131003A31303833313030C1
:102800003033323436323934363230343630304682
:1028100030304246393030424546454537344246ED
:10282000363338003A313038333230303041423686
:1028300031303046303746463930303238454344FF
:102840003030333442344646303030343232360061
:102850003A3130383333303030444136323032421E
:1028600030424445384630383130304544303045C8
:102870003045343931303030384546003A3130381F
:1028800033343030303030424546454537314546A7
:10289000303034304630434246454646333038388F
:1028A00030454646333532003A31303833353030F2
:1028B00030303938303731343632343441313034D5
:1028C000373244453946303431383242303034348E
:1028D000363535003A3130383336303030383834E8
:1028E0003630383442354536423946364239443638
:1028F0004130373438303046303834463835370098
:102900003A3130383337303030434446383030385D
:10291000303342343633323436323934363230346E
:102920003630304630443846383241003A3130385B
:102930003338303030303042454645453730304509
:102940004430304530463439313030303831454606
:1029500030303430464346003A3130383339303045
:102960003030434246454646333038383045464697
:102970003330393830373134363133344131303413
:10298000374432003A313038334130303032444508
:1029900039463034313832423030343436383834D5
:1029A00036303834423545364239463642313600C3
:1029B0003A313038334230303039443641303734B0
:1029C0003830304630363046384344463830303878
:1029D0003033423436333234364531003A313038D0
:1029E000334330303032393436323034363030469A
:1029F0003042344638303042454645453730304520
:102A000044303045304343003A313038334430307D
:102A1000303030393230303038303042454645453C
:102A200037303042454645453730304245464545CA
:102A3000373141003A313038334530303037303477
:102A4000373030303045333832303030383539383F
:102A50003330303038413138333030303835390068
:102A60003A303438334630303030304245464545D0
:102A7000374536003A313038334634303035343922
:102A8000323030303830303030303032303738302B
:102A9000303030323035343932303030384535002E
:102AA0003A3130383430343030303030303030310A
:102AB0003030303030303031303738303030303204
:102AC0003037433031303032303133003A303838FB
:102AD00034313430303030303030303130303030EC
:102AE00030303031303430003A31303834323030F8
:102AF0003046454537303030303038423530333469
:102B00003630433441313236383541423130423447
:102B1000413331003A3130383433303030313036AF
:102B2000383033333332334630303330333033346C
:102B30003430393441393334323036443832380065
:102B40003A31303834343030303036344131333645
:102B50003030384244303534413036343931313612
:102B60003045464537303046304346003A313038FC
:102B700034353030304337463930433233303336F2
:102B80003034464630464633304633453737433097
:102B900030303032304536003A313038343630302B
:102BA00030303046433030323037433031303032DD
:102BB00030303132333033363030313442304236D7
:102BC000303135003A313038343730303037303406
:102BD0003730304246303430303030323030464298
:102BE00034303042353833423030344142303800AE
:102BF0003A3130383438303030353346383034328A
:102C00004230313933383032313036343830304672
:102C10003044424639303032383033003A3130387F
:102C2000343930303030334444303134363033345A
:102C3000383030463033374638303342303544460A
:102C400038303445423534003A3130383441303050
:102C5000303034423037303437383430303030323E
:102C600030324445394630343338354230303434EC
:102C7000364635003A313038344230303030463420
:102C800036343335363042423130453436314545BD
:102C90003030343235323834363231343643320023
:102CA0003A313038344330303041424245303434A8
:102CB0003633383436303542304244453846303881
:102CC0003331344639303131423835003A313038D9
:102CD0003444303030303441413141343430324684
:102CE0003831303143303133334142343246364467
:102CF00033303441414432003A3130383445303099
:102D0000303133343430303232303346383130328F
:102D10004334464630303430384539343634303434
:102D2000364443003A313038344630303034393468
:102D3000364142424538303436373631423030320F
:102D4000454533443033353436313032453933003C
:102D50003A31303835303030303238424631303226
:102D600035303032334538453730384235464646BF
:102D70003743444646303842443139003A313038DE
:102D800035313030303038423530304630393746E2
:102D900038303234413032344239413630303842C2
:102DA00044303042463038003A31303835323030F5
:102DB00030303038303030303830304544303045C5
:102DC0003030384235303046304142463830384273
:102DD000444531003A3130383533303030463842AE
:102DE0003530343436304434363137343631453486
:102DF0003632373438464646373943464633300054
:102E00003A31303835343030303231363832363489
:102E10003846464637393846463631363832353404
:102E20003846464637393446464538003A31303818
:102E30003535303030413136383234343846464614
:102E400037393046464531363832333438464646CF
:102E500037384346464543003A313038353630300E
:102E600030323136393232343846464637383846D1
:102E700046363136393231343846464637383446AC
:102E8000464545003A3130383537303030413136FB
:102E90003932303438464646373830464645313682
:102EA000393146343846464637374346464632007F
:102EB0003A3130383538303030314534384646468E
:102EC0003737394646323934363144343846464647
:102ED0003737354646314434433730003A3130389D
:102EE0003539303030453136413144343846464644
:102EF000373730464632313642314334384646461B
:102F000037364346463735003A3130383541303070
:102F100030453136423142343846464637363846F7
:102F2000463135463038303046304144313135460F
:102F3000343437003A313038354230303030303484
:102F400046304344313137343846464637354646B5
:102F500046303639393136343846464637453900F9
:102F60003A313038354330303035424646463842C3
:102F700044333934363135343846464637353646AB
:102F80004645464537333134363238003A313038E9
:102F900035443030303133343846464637353146A3
:102FA0004645444537433839303030303844383975
:102FB00030303030383536003A3130383545303001
:102FC00030453839303030303846383930303030AC
:102FD00038303839313030303831383931303030BC
:102FE000383239003A3130383546303030323839BD
:102FF0003130303038333839313030303834383996
:1030000031303030383538393130303038313700C0
:103010003A31303836303030303634393130303083
:103020003830304544303045303734393130303045
:103030003838343931303030383736003A3130387A
:10304000363130303039343931303030384334393A
:103050003130303038434339313030303841343911
:1030600031303030383245003A3130383632303055
:1030700030423439313030303838333639314138F4
:1030800038384134323031443030303230373034F7
:10309000374642003A31303836333030303032360D
:1030A00038303333413031324130334438303233C9
:1030B00033383336313031323037303437394300FA
:1030C0003A313038363430303030303230373034D6
:1030D0003730433442314136383432463030313083
:1030E0003231413630303032314141003A313038BE
:1030F0003635303030393936303141363832324673
:103100003038343732323246343830333231413667
:1031100030303734413034003A31303836363030A0
:10312000303541363031413638323246343830323B
:103130003231413630443936303034344234464608
:10314000304435003A313038363730303030303670
:103150003239413630373034373030424630303310
:103160003830323430313033303030323434410062
:103170003A313038363830303030304544303045F0
:1031800030323234423942363830334630304330D0
:103190003330343242313444303938003A31303807
:1031A00036393030303038324231364430314242B4
:1031B0003131463442314634413141363030324586
:1031C00030314434423545003A31303836413030C0
:1031D0003031443441314136303141344239423664
:1031E000384333463330333133314234414431355F
:1031F000433233003A3130383642303030313834AF
:10320000413133363843423430313336303730345D
:10321000373136344231363441314136303644006C
:103220003A31303836433030304630453731333438
:103230004235413638354236383033463033463001
:103240003331324634383030463236003A31303855
:1032500036443030303133443031313441423246FB
:1032600042463346323044344235423638433346A0
:1032700033383831333545003A313038364530301F
:1032800030303346423032463330413441353236C5
:1032900038433246333031343230313332353230E4
:1032A000303043003A3130383646303030423346E1
:1032B0004246324633303734413133363044344578
:1032C0003730373441423246424633463238350091
:1032D0003A3130383730303030303334423542369E
:1032E0003843334633383831333033464230324650
:1032F0003345414537303042463834003A31303872
:103300003731303030303033383032343030433091
:103310003030303230303032344634303031303981
:1033200032303030384631003A3130383732303090
:103330003030384235303734423542363831334612
:10334000343030364630374430303534423542360A
:10335000393136003A31303837333030303938345B
:1033600037303334414433363834334634303036F2
:1033700033443336303038424430304246383100FE
:103380003A3130383734303030303036343032340F
:1033900030303430313030323030384235303434FF
:1033A0004231423638393834374630003A313038D5
:1033B00037353030303033344135333639343346B5
:1033C00030303130333533363130384244323430B6
:1033D00031303032303142003A31303837363030E7
:1033E000303030334330313430303842353034349B
:1033F0004235423638393834373033344135333654
:10340000394435003A31303837373030303433468C
:103410003030323033353336313038424432343064
:1034200031303032303030334330313430383600A0
:103430003A31303837383030303032344231383643
:103440003843304633303034303730343730304220
:103450004631304530303045304533003A31303830
:103460003739303030313042313031323830364413
:1034700030373034373035344131333638343346F1
:1034800030303230333630003A3130383741303036
:1034900030313336303730343730323441313336EF
:1034A00038323346303032303331333630373034DF
:1034B000373936003A3130383742303030313045E4
:1034C0003030304530303842353037344231423692
:1034D000383938343746464637453046464133005A
:1034E0003A3130383743303030303534423142377A
:1034F000383031324230304430303842443031326A
:103500003046464637453046463046003A31303838
:10351000374430303046414537303042463734301A
:10352000313030323036343031303032304645454B
:1035300037303030304641003A313038374530305E
:103540003030313442313836383730343730304229
:103550004631303030303032303330423531343132
:10356000453030003A31303837463030303035343D
:1035700036394242303138343630354441384232BF
:1035800033324236303446463046463330464600C3
:103590003A313038383030303031424230333042D6
:1035A000443446463430323733414446383043336E
:1035B0003031344246303446313446003A313038C6
:1035C00038313030304646333332333436303239A6
:1035D0003330353933344646364646373330303962
:1035E00031303439314233003A31303838323030CA
:1035F0003041444638304533303032343631453945
:103600004236393436323834363030463037324646
:10361000384544003A313038383330303034333183
:1036200043424342463842323332423630303032FF
:103630004345314430303039423030323238420044
:103640003A31303838343030303141373044444505
:103650003730374235303039333133343630413416
:103660003630313436303334383530003A31303852
:1036700038353030303030363846464637434246AB
:1036800046303342303544463830344642313030AB
:1036900030303032304239003A313038383630301C
:1036A0003032444539463034373845363839453478
:1036B00032383234363043343639303436393934AE
:1036C000363136003A3130383837303030333744DD
:1036D000383841383931324634393036463331445E
:1036E00030323536383039363936463141343800A3
:1036F0003A31303838383030303635363930323289
:103700003330354542343530353935464246334617
:103710003530394631303130333435003A31303894
:10372000383930303033423434394434323338422B
:10373000463144343635333035333044353239341C
:1037400036303046303634003A3130383841303057
:1037500030373946423036343635304239304332EC
:1037600033434146383030333041333839343346CF
:10377000303746003A31303838423030303430302B
:10378000334133383134464630464633304244457F
:1037900038463038373341343632313639424400D6
:1037A0003A313038384330303030304630463646A3
:1037B0004141333839323346343930363334334685
:1037C0003038303033413338314238003A313038D4
:1037D0003844303030323636313635363133453490
:1037E0003445443142323636304135363034453452
:1037F00036344534353046003A313038384530308B
:103800003030304439344534363332343634313460
:103810003632303638303046304543464141333613
:10382000384233003A31303838463030303942315E
:10383000424133363032333638314534343236361D
:103840003030303230444345373241343646390027
:103850003A3130383930303030303046304132460D
:1038600042303634363030323845324431323136F7
:103870003935303436303046304133003A31303823
:10388000393130303046334641433845373244458C
:1038900039463034463944423038303436303339A2
:1038A00033384238394139003A31303839323030E2
:1038B0003031443036304334363136343630464495
:1038C0003530423639364242393430323130304682
:1038D000304139003A3130383933303030333146C5
:1038E000423230363032303631323842393043327B
:1038F0003343384638303033303446463043420064
:103900003A31303839343030304646333043374539
:103910003034303233363336313030323330393977
:103920003332303233384446384133003A3130385C
:103930003935303030323933303330323338444631
:103940003832413330344646303031304233373408
:1039500036334434363431003A3130383936303049
:1039600030313546383031334230424231323532EF
:10397000423345443142374542303630413042448B
:10398000303136003A313038393730303035333431
:1039900036333234363231343634303436464646B5
:1039A00037373246463031333030304630373100E9
:1039B0003A313038393830303041343830303939B4
:1039C000423533343430393933334237383030329A
:1039D0004230304630394438303031003A313038B6
:1039E0003939303030303032333446463046463361
:1039F0003243444539303532333034393330373956
:103A000033384446384230003A313038394130306A
:103A10003035333330314139333246343630353254
:103A2000323137463830313142344634383030461E
:103A3000303439003A31303839423030303246464D
:103A400041303439424430423944393036343442DA
:103A50004632303232384446383533323034410021
:103A60003A313038394330303031413037343442F4
:103A700046324232323844463835333230324137BA
:103A80003832413241313544303633003A31303802
:103A900039443030303037394132463436303032C4
:103AA00030304132353339343631314638303133C4
:103AB00042333033423033003A31303839453030D8
:103AC000303039324234444439423842313046454C
:103AD0003032463436423845373346344138303157
:103AE000413945003A31303839463030303042467D
:103AF0004130304630313834333034393033443467
:103B0000364433453730333941313131443842005E
:103B10003A31303841303030303132363830333964
:103B2000313030324130314442303739323034452F
:103B30003035323432343346303045003A31303863
:103B4000413130303030323033303739323034393F
:103B500033334237383245324230434431374237CB
:103B600038324132424630003A313038413230301A
:103B700030333344313033394231413144314236CC
:103B80003830333932303032424238424634464699
:103B9000303734003A3130384133303030464633F4
:103BA00033303233373035393332453444333937B3
:103BB00038303332323238343630304630383400F0
:103BC0003A31303841343030304537463933384275
:103BD0003134303233343031423033464130304684
:103BE0003030343942303334334344003A313038A2
:103BF0004135303030303133373034393333393781
:103C0000383237343838444638323831303036324A
:103C100032374531434138003A313038413630305F
:103C2000303030463044364639303032383338441C
:103C30003032333442313342423033394230373319
:103C4000333033003A313038413730303032334658
:103C5000303037303330383333303339333039392B
:103C600042344234343039393336444537453500EF
:103C70003A313038413830303030354642303233E6
:103C800032303132303046343641364537303032DA
:103C90003330313337303539334243003A313038FD
:103CA00041393030303139343630413235333834BF
:103CB00036313046383031324233303341303932A8
:103CC00041303344393144003A31303841413030A9
:103CD0003030303242433844303035393143364564
:103CE000373035464230313231303132333037348B
:103CF000363244003A313038414230303046304577
:103D00003730334142303039333232343631303467
:103D1000423034413934303436414646333036004F
:103D20003A3130384143303030303038304230462C
:103D300031464633463831343644364431413338DF
:103D40003935423036334646353138003A3130382D
:103D500041443030303336414630393938314442CD
:103D600030424445384630384630334142303039AD
:103D700033323234363736003A313038414530301C
:103D800030303634423034413934303436303046D5
:103D900030383146384541453732303932303030AD
:103DA000383045003A3130384146303030323639DB
:103DB00032303030383241393230303038303030D3
:103DC0003030303030363138383030303830310003
:103DD0003A31303842303030303244453946303470
:103DE0003739313436314634363841363830423658
:103DF0003944444638323038303031003A31303886
:103E00004231303030393334324238424631333443
:103E1000364339463830303330393146383433322E
:103E200030303634363837003A313038423230307C
:103E30003030433436313242313031333343394616
:103E40003830303330323336383939303634324224
:103E5000464530003A31303842333030304439460C
:103E60003830303330303233334339463830303302
:103E7000303235363831354630303630353731002E
:103E80003A313038423430303030374431303446D3
:103E900031313930414533363844394638303032A3
:103EA0003039423141414234323537003A313038CD
:103EB0004235303030323844433934463834333385
:103EC00030323236383030333331384246303132A6
:103ED00033393230364332003A31303842363030BE
:103EE0003032444434303446313433303233393470
:103EF0003633303436433034373031333032304477
:103F0000304144003A313038423730303032333685
:103F1000384535363844394638303032303033461B
:103F2000303036303330343242303842463341005C
:103F30003A31303842383030304144314141333603
:103F400038323236393043424632354541453537CD
:103F50003530303235393334323541003A3130384A
:103F600042393030304334424639423141454431A0
:103F700038344646303030303931413334344434CB
:103F800035314144313835003A31303842413030F2
:103F900030303032303038453030313233353234F1
:103FA00036333934363330343643303437303133C6
:103FB000304434003A3130384242303030303344CB
:103FC0003134464630464633304244453846303830
:103FD0003730313335433345374531313837450094
:103FE0003A3130384243303030354131433330326A
:103FF0003038314638343330303232343439344664
:104000003834353130383246383632003A3130388B
:10401000424430303034333130303233334335453D
:104020003730313233323234363339343633303458
:1040300036433034374439003A3130384245303035
:10404000303031333045364430303946313031301C
:1040500039443845373030303032444539463034D1
:10406000333932003A313038424630303030314620
:1040700031343330433043343630393745383542C4
:1040800030364532393137343630363436453600FD
:104090003A313038433030303039383436304339C3
:1040A00041303046304233383032324438363332A1
:1040B0003933364430304144383446003A313038B0
:1040C0004331303030303032393030463042393898
:1040D0003035383239303046303833383030344685
:1040E00031343230353532003A31303843323030C5
:1040F0003038344638343231303332453036343269
:10410000393031443036393239463644313230363E
:10411000383235003A31303843333030303133368D
:104120003830353036303346313034303132414436
:10413000353142363831313630303032423937005D
:104140003A31303843343030303033444132443205
:1041500032354234323834463834333230364634ED
:104160003830413232333945303830003A31303826
:1041700043353030303733323930304630394438D7
:1041800030303844383646323932304430373032C5
:1041900039444444314243003A31303843363030B8
:1041A00030323336383433463032303033323336CF
:1041B00030303345303735323931374430373832A3
:1041C000393937003A3130384337303030443444AD
:1041D0003137383233383446383435333036343486
:1041E00038353545303133363831393144333100A3
:1041F0003A31303843383030303142363831313668
:104200003030344631343230353834463834323355
:104210003030313233384345303336003A3130387C
:104220004339303030314236383131363031304632
:1042300030343030463138424631424232434645CE
:1042400037313336384243003A3130384341303029
:10425000303235363831383144313036303238301A
:1042600036303144353142363830324530363830E8
:10427000364242003A3130384342303030464244D0
:1042800035314238383534343836463239313442B3
:1042900046304132323038323230303231433300FE
:1042A0003A313038434330303038344638343331A3
:1042B000303635363841353630303032444330468A
:1042C0003239353830323136383836003A313038D4
:1042D0004344303030323146303034303132313690
:1042E000303030324233444431303032443430465E
:1042F00030384538303539003A3130384345303080
:10430000303635343630383241304244313233364B
:104310003844423037303844353233363936323625
:10432000383242003A313038434630303039413447
:1043300032444542463330323330354638303133FB
:1043400043303546314646333541434542414400CA
:104350003A31303844303030303035303332333623
:1043600031434446383030383033423436303341CC
:104370004132313436333034363837003A31303820
:104380004431303030464646374636464530313384
:10439000303444443134464630464633303035427A
:1043A00030424445383532003A31303844323030CA
:1043B0003046303833333934383834463834353190
:1043C0003031333638323136383144314431423687
:1043D000384244003A3130384433303030313536A9
:1043E0003030413036304244354341303734344246
:1043F00046343146303230303132313630323700A7
:104400003A31303844343030303142423932323649
:104410003832324630323030323232363031303269
:104420003242374537344430364543003A3130382C
:1044300044353030303438424639424232454645C0
:1044400037363534364233464246324631303246CC
:1044500042313133333643003A313038443630302C
:1044600030433335433035463830313344304234CD
:1044700036303032394635443142394537313336BA
:10448000383445003A313038443730303032353600
:1044900038363136393138314431303630323830CF
:1044A00036314236383031443531393630463700CE
:1044B0003A3130384438303030303245303641309F
:1044C0003646424435313938303030323332333683
:1044D0003136353436423945373336003A313038A3
:1044E0004439303030313336383139314431313676
:1044F0003031443638363236383030323132383472
:1045000036303046304533003A313038444130306F
:104510003033374638303842313430314236303635
:104520003036333638323336313030323338344641
:10453000384432003A31303844423030303433334A
:1045400030413745373233363932413436333934F6
:104550003633303436433034373031333038390045
:104560003A313038444330303041414430323336D0
:1045700038394230373133443445303638303339C6
:104580004239383432423842464445003A313038B4
:1045900044443030303138343641334537303132AD
:1045A00033344134363339343633303436433034AF
:1045B00037303133304341003A31303844453030C0
:1045C0003039414430303133354533363830333982
:1045D00041394231414142343246324443454245F9
:1045E000374239003A31303844463030303030329A
:1045F000353034463131393039463545373030324F
:10460000424143443130333738383446384243002E
:104610003A3130384530303030343233303034464F
:10462000313432303536434537333139323030303A
:104630003834323932303030384241003A31303853
:10464000453130303030314630464630313130320D
:1046500041324244423130463030373046303844BF
:1046600030313046383242003A313038453230301D
:1046700030303133423031334138423432324444C5
:1046800030313046303037304634324233463644AB
:10469000313246003A3130384533303030463042DE
:1046A00034343145413031323134314541303134A7
:1046B00031323246303037303437464630343800C5
:1046C0003A313038453430303030303037303032B5
:1046D0003346304538303235363038334338354557
:1046E0004130313035383645413946003A3130387D
:1046F0004535303030303130363835464134374644
:1047000035413346413837463538364641343746E9
:1047100036413546414442003A3130384536303032
:1047200030383746363845423945454431463042BF
:104730004330314630464630313032463030373003
:10474000324537003A313038453730303033324235
:1047500031313046383031334230313341383345EE
:10476000413031303331334231463844313932000F
:104770003A313038453830303030303230373034FC
:1047800037303133383730343730303244303642D6
:104790004633353436303333383733003A313038F6
:1047A00045393030303037333831354630303130BC
:1047B0004630374431303133303135463438303794
:1047C00046303242464143003A313038454130307C
:1047D0003030313330313546344330334630313385
:1047E000304630424330313338373034373030425E
:1047F000464644003A31303845423030303130425C
:104800003534333145304134343931343230304449
:10481000313130424431314638303134423738005A
:104820003A31303845433030303033463830313427
:1048300046463745373838343231304235303145E5
:104840004230323033303744383141003A31303839
:1048500045443030303432314539393432304144D6
:1048600030313146383031344230324638303134EC
:1048700046463845374646003A31303845453030AF
:1048800030383334324635443938313138443231B6
:104890004144333432303044313130424431334694
:1048A000384143003A3130384546303030303134C9
:1048B0004430314638303134444637453733384256
:1048C00035303534363030323934354430383900CB
:1048D0003A31303846303030303531463830343384
:1048E000433043314630303242423842464534311B
:1048F0003830304630443246383535003A31303879
:10490000463130303031463441313336383130344D
:104910003633334239363336303134363032383448
:1049200036424445384531003A313038463230302D
:104930003033383430303046304338423841333405
:104940003230434439323136383632313839333403
:10495000324237003A31303846333030303034422A
:1049600046314136383542363836333630303442C7
:104970004635323138323236303034363035330025
:104980003A313038463430303045434537313334AE
:104990003635413638304142314132343246414475
:1049A0003931393638353831384430003A313038D9
:1049B0004635303030413034323042443132303696
:1049C00038303134343538313838323432313936A0
:1049D00030444444313242003A3130384636303087
:1049E0003031303638353236383541363030313482
:1049F0003431393630443745373032443930433238
:104A0000333846003A31303846373030303242366B
:104A1000304433453732303638323131383841342A
:104A20003230344246313136383532363832390058
:104A30003A31303846383030303632363030344221
:104A400046303931383231363035433630433745E8
:104A50003733384244303042463943003A313038F7
:104A600046393030303638303130303230373042FD
:104A700035434431433235463030333035303833C6
:104A800035304332444137003A31303846413030D6
:104A900030333842463043323530303244303634A9
:104AA0003630314442413934323033443930433284
:104AB000333445003A3130384642303030333336C3
:104AC0003030303230373042443030463037444670
:104AD00038323134413134363832313436314500B0
:104AE0003A3130384643303030393142393230345F
:104AF000433233363831424239333034363030463F
:104B00003036334638323036303442003A3130387D
:104B10004644303030323934363330343630304633
:104B20003035454638343331433234443130433202
:104B300033333336303530003A3130384645303053
:104B400030333034363030463036384638453445E8
:104B500037304236383542314231384434304232CF
:104B6000424535003A3130384646303030304644E0
:104B700039304236304344353043433138333034B2
:104B800036303046303543463830344631364500CD
:104B90003A313039303030303030423030323331E9
:104BA000443230463030373030433331414433447F
:104BB0003035413432453235304230003A313039C7
:104BC0003031303030443045373843343234423677
:104BD000383136424636333630313336303043346E
:104BE00036454245374539003A3130393032303078
:104BF0003030433436343936384343453743343123
:104C0000433234463030333034413034323035443E
:104C1000304438003A31303930333030303231318D
:104C20004133303436303046303245463830313317
:104C30003043464430323536304442453735320011
:104C40003A3130393034303030363830313030323B
:104C500030364330313030323046384235303734F8
:104C60003631343436304534363632003A31303924
:104C700030353030303231423931313436424445CA
:104C80003846383430464646373943424632324257
:104C900039464646374530003A31303930363030C3
:104CA000303442464632353436323834364638426D
:104CB0004430304630323646384130343230464463
:104CC000323537003A3130393037303030323134E4
:104CD000363338343646464637384546463035341E
:104CE0003630303238463244303331343644430083
:104CF0003A31303930383030303232343646464648
:104D00003731354646333134363338343646464605
:104D10003733354646453945373746003A3130391D
:104D20003039303030333534364537453733384213
:104D30003530363443303032333035343630383431
:104D400036323336303039003A3130393041303054
:104D500030464646374330463934333143303244A7
:104D600031323336383033423132423630333842E2
:104D7000443230003A313039304230303037303020
:104D800031303032303730343737303437353146E0
:104D900038303433433138314630303242433600D4
:104DA0003A31303930433030304243424630423578
:104DB000384330313837303437353337343631369D
:104DC0003336423230363637323435003A313039C4
:104DD000304430303036313644363533413041306E
:104DE000303030303032303532333032303344329C
:104DF00030323032354235003A313039304530309A
:104E00003033303338353830413030303030303076
:104E10003032303532333132303344323032303266
:104E2000353531003A313039304630303033303377
:104E30003835383041303030303030303032303545
:104E40003233323230334432303230323534300063
:104E50003A31303931303030303330333835383022
:104E60004130303030303030303230353233333220
:104E70003033443230323032353245003A31303915
:104E800031313030303330333835383041303030F4
:104E900030303030303230353233313332323033FB
:104EA00044323032353045003A31303931323030E9
:104EB00030333033383538304130303030303030C6
:104EC00030323034433532323033443230323032A3
:104ED000354635003A3130393133303030333033C4
:104EE0003835383041303030303030303032303595
:104EF00030343332303344323032303235463000A1
:104F00003A3130393134303030333033383538306D
:104F1000413030303030303030323035303533356C
:104F20003232303344323032353945003A3130395B
:104F3000313530303033303338353830413030303F
:104F40003030303030343635333532324634363422
:104F500031353233413138003A3130393136303041
:104F60003030413030303030303230343334363518
:104F700033353232303344323032303235333033FD
:104F8000383744003A313039313730303035383005
:104F900041303030303230343834363533353232D7
:104FA0003033443230323032353330333831300000
:104FB0003A313039313830303035383041303030B6
:104FC00030323034343436353335323230334432A3
:104FD0003032303235333033383034003A313039D2
:104FE0003139303030353830413030303032303493
:104FF0003134363533353232303344323032303278
:1050000035333033384637003A313039314130307A
:10501000303538304130303030323034443444343C
:105020003634313532323033443230323533303346
:10503000384330003A313039314230303035383051
:10504000413030303032303432343634313532322F
:105050003033443230323032353330333845380033
:105060003A313039314330303035383041303030FA
:1050700030344436393733363330413030303030E5
:105080003032303443353232464241003A313039E1
:1050900031443030303435353834333546353234B8
:1050A00035353435353532344533443230323533A5
:1050B00030333835383245003A31303931453030C7
:1050C000303041303030303030354234383631379E
:1050D000323634343636313735364337343544306A
:1050E000413338003A3130393146303030303030A9
:1050F000303030303035423432373537333436366D
:105100003137353643373435443041303038370065
:105110003A31303932303030303542353537333648
:105120003136373635343636313735364337343520
:105130004430413030303030304142003A31303943
:10514000323130303030303030303030303030305C
:10515000303030303030313032303330343036303F
:1051600037303830393236003A3130393232303037
:1051700030323332443330324232303030363836E7
:1051800043344330303635363636373435343634BA
:10519000373446003A313039323330303030303302
:1051A00030333133323333333433353336333733CB
:1051B00038333934313432343334343435443200D2
:1051C0003A313039323430303034363030333033B5
:1051D0003133323333333433353336333733383393
:1051E0003936313632363336343431003A303339A9
:1051F000323530303036353636303035300000001C
:105200003A3130393235343030373835363334315D
:105210003238303030303032303030303030303082
:105220003030303234463430303345003A31303962
:10523000323634303031343030303032303030305B
:10524000303030303030303030303030303030305E
:1052500030303030304336003A3130393237343044
:10526000303030303030303030303030303030303E
:10527000303030303030303030303030303030302E
:10528000304541003A313039323834303030303006
:10529000303030303030303030303030303030300E
:1052A0003030303030303030303030303044410009
:1052B0003A313039323934303030303030303030CB
:1052C00030303030303030303030303030303030DE
:1052D0003030303030303030304341003A313039C6
:1052E00032413430303030303030303030303030A7
:1052F00030303030303030303030303030303030AE
:1053000030303030304241003A313039324234307E
:10531000303030303030303030303030303030308D
:10532000303030303030303030303030303030307D
:10533000304141003A303839324334303030303047
:10534000303030303033323534373639383045004C
:105350003A30343030303030353038303038313920
:10536000354439003A303030303030303146460044
:105370003A3032303030303034303830314631002D
:105380003A3130303030303030303030303031320F
:1053900030433530323031303843423032303130C2
:1053A0003843463032303130383446003A313030CC
:1053B00030313030303431303330313038343530D2
:1053C00033303130383844303330313038303030A9
:1053D00030303030304139003A31303030323030D6
:1053E00030303030303030303030303030303030BD
:1053F0003030303030303030304435303330313090
:10540000384546003A31303030333030304439306E
:105410003330313038303030303030303044443058
:105420003330313038423530373031303832440063
:105430003A31303030343030304631303330313042
:105440003846313033303130384631303330313016
:105450003846313033303130384243003A31303021
:1054600030353030304631303330313038463130FD
:1054700033303130383439303730313038363530F8
:1054800037303130384438003A313030303630300F
:1054900030463130333031303846313033303130CE
:1054A00038463130333031303846313033303130B6
:1054B000383943003A3130303037303030463130CF
:1054C0003330313038463130333031303846313096
:1054D00033303130384631303330313038384300B2
:1054E0003A3130303038303030463130333031308E
:1054F0003846313033303130384631303330313066
:105500003830303030303030303739003A313030A8
:105510003039303030303030303030303030303082
:105520003030303030303030303030303046313064
:1055300033303130383633003A313030304130306A
:10554000304631303330313038463130333031301D
:105550003846313033303130384631303330313005
:10556000383543003A313030304230303046313017
:1055700033303130384631303330313038463130E5
:105580003330313038463130333031303834430005
:105590003A313030304330303046313033303130D2
:1055A00038463130333031303846313033303130B5
:1055B0003846313033303130383343003A313030CF
:1055C000304430303046313033303130384631308D
:1055D000333031303846313033303130383030309C
:1055E00030303030303239003A31303030453030C0
:1055F000304631303330313038463130333031306D
:10560000384631303330313038303030303030306F
:10561000303139003A31303030463030303030308F
:10562000303030303030303030303030303030307A
:105630003030303030463130333031303830330074
:105640003A3130303130303030303030303030304E
:10565000304631303330313038463130333031300C
:105660003846313033303130384638003A31303016
:105670003131303030303030303030303030303028
:10568000303030303030303030303030303030301A
:1056900030303030304446003A3130303132303002
:1056A00030463130333031303846313033303130BC
:1056B00038463130333031303846313033303130A4
:1056C000384442003A3130303133303030463130B6
:1056D00033303130383030303030303030303030BE
:1056E00030303030303030303030303030433200D5
:1056F0003A3130303134303030303030303030309A
:105700003030303030303030303030303030303099
:105710003046313033303130384232003A31303077
:105720003135303030323130373031303846313049
:105730003330313038463130333031303846313023
:1057400033303130383737003A313030313630305D
:10575000304631303330313038463130333031300B
:105760003830303030303030303030303030303031
:10577000303935003A313030313730303030303038
:105780003030303030303030303030303030303019
:10579000303030303030303030303030303746001C
:1057A0003A313030313830303030303030303030E5
:1057B00030463130333031303830303030303030C6
:1057C0003030303030303030303732003A313030F5
:1057D000313930303046313033303130383030428A
:1057E0003538334230303046304241463933383430
:1057F00042333934414431003A3130303141303074
:105800003031333630333934413133363033393453
:105810003930304530323134363338344239393426
:10582000324246003A31303031423030303042443A
:1058300032304136383442363830314631304330F8
:105840003438383638393834324634443941340003
:105850003A31303031433030303131363831393609
:1058600030303433333034333246384537324534D0
:105870004231413638333134423741003A313030E9
:10588000314430303039413432303044304645458F
:10589000373243344231413638324634423941346A
:1058A00032463944313735003A31303031453030C5
:1058B0003032373442324534413133363032453478
:1058C0004131333630324534423035453030303274
:1058D000303439003A3130303146303030313036C2
:1058E0003030343332393334324641443830423444
:1058F0003632423441393334323034443234310078
:105900003A3130303230303030313934363531465A
:1059100038303832423542363846344537323434FE
:105920004231423638313342394237003A31303031
:105930003231303030323334423142363830334213
:1059400031464545373030463038364639363934B9
:1059500036303141383844003A313030323230302C
:1059600030303046303232463932313443323234DC
:1059700042453431414134313030303235414334A5
:10598000323234003A313030323330303031344416
:105990004332303443323034424534314141343182
:1059A00030303032354143343231334443343300C4
:1059B0003A313030323430303030303939303139BA
:1059C0003830304630434146413035343631433447
:1059D0004331433442453431414230003A31303072
:1059E000323530303041343130303032433045445C
:1059F000433238343630304630453246383134342C
:105A000042353346384632003A3130303236303063
:105A1000303235333039383437303133354532452B
:105A20003731333442353346383235333039383410
:105A3000373745003A31303032373030303031335B
:105A400035453345373031334331323442353346CF
:105A50003832343330393834374538453739370000
:105A60003A3130303238303030424142414445439F
:105A70004130303030303032303734303030303206
:105A80003046343033303130383945003A313030F7
:105A900032393030303043303430313038373835C7
:105AA00036333431323332353437363938373830AB
:105AB00030303032303035003A31303032413030F1
:105AC00030373830313030323030433034303130AC
:105AD0003831433034303130383143303430313084
