:020000040800F2
:1000000000000120C5020008CB020008CF02000852
:1000100041030008450300088D03000800000000AC
:10002000000000000000000000000000D5030008F0
:10003000D903000800000000DD0300083D0E0008A1
:10004000F1030008F1030008F1030008F1030008C0
:10005000F1030008F103000889080008A50800085A
:10006000C1080008DD080008F9080008F1030008CD
:10007000F1030008F1030008F1030008F103000890
:10008000F1030008F1030008F1030008000000007C
:10009000000000000000000000000000150900083A
:1000A000F1030008F1030008F1030008F103000860
:1000B000F1030008F1030008F1030008F103000850
:1000C000F1030008F1030008F1030008F103000840
:1000D000F1030008F1030008F1030008000000002C
:1000E00059090008F1030008F103000800000000AE
:1000F000000000000000000000000000F103000804
:1001000000000000F1030008F1030008F1030008FB
:1001100000000000000000000000000000000000DF
:10012000F1030008F1030008F1030008F1030008DF
:10013000F1030008000000000000000000000000C3
:10014000000000000000000000000000F1030008B3
:1001500021070008F1030008F1030008F10300087B
:10016000F1030008F1030008000000000000000097
:10017000000000000000000000000000000000007F
:1001800000000000F1030008000000000000000073
:10019000F103000800B583B000F0BAF9384B394AD2
:1001A0001360394A1360394900E02146384B9942BF
:1001B0000BD20A684B6801F10C0488689842F4D9A4
:1001C0001168196004330432F8E72E4B1A68314B7A
:1001D0009A4200D0FEE72C4B1A682F4B9A42F9D175
:1001E000274B2E4A13602E4A13602E4B05E0002049
:1001F000106004329342FAD80B462B4A934204D241
:10020000194651F8082B5B68F4E7244B1B6813B9B7
:10021000234B1B6803B1FEE700F086F9694601A88D
:1002200000F022F9214C224BE41AA4100025AC4224
:1002300014DC204C204BE41AA4100025AC4213DC43
:100240000099019801F030F805461C4C1C4BE41A4B
:10025000A410002C0EDC284600F0E2F8144B53F8F2
:10026000253098470135E2E7134B53F8253098477E
:100270000135E3E7013C124B53F824309847E8E797
:10028000BABADECA00000020080A0020F403000801
:100290000C04000878563412325476980C0A002068
:1002A0000C0B00200C0400081C0400081C040008AF
:1002B0001C0400081C0400081C0400081C0400089E
:1002C0001C04000808B5FFF765FF00BEFEE71EF03E
:1002D000040F0CBFEFF30880EFF309807146414A29
:1002E00010472DE9F04182B004468846124B5E6B00
:1002F0009F6B9D6A1B6B13F0020F03D00E4BDB6AE2
:10030000002B0CDB0D4800F0B7F8CDF800803B4621
:1003100032462946204600F00BF900BEFEE74BF6B8
:10032000AB6100F07FF90028ECD0034B4FF00042A6
:10033000DA6202B0BDE8F08100ED00E0641E000862
:1003400000BEFEE71EF0040F0CBFEFF30880EFF3D2
:1003500009807146244A10472DE9F04182B00446D5
:100360008846084B5E6B9F6B9D6A074800F084F8D7
:10037000CDF800803B4632462946204600F0D8F8AA
:1003800000BEFEE700ED00E0741E00081EF0040F42
:100390000CBFEFF30880EFF309807146134A104752
:1003A0002DE9F04182B004468846084B5E6B9F6B96
:1003B0009D6A074800F060F8CDF800803B46324661
:1003C0002946204600F0B4F800BEFEE700ED00E04C
:1003D000801E000800BEFEE700BEFEE700BEFEE78E
:1003E00070470000E302000859030008A103000859
:0403F00000BEFEE766
:1003F400CC860008000000200C0A0020CC860008EF
:1004040000000010000000100C0A0020100B002057
:080414000000001000000010C0
:10042000FEE7000008B503460C4A12685AB10B4AB1
:100430001068033323F003030344094A934206D8A8
:10044000064A136008BD054A06491160EFE701F04E
:1004500005F80C2303604FF0FF30F3E7100A00208B
:1004600000FC0020100B002001230360014B0B60F7
:10047000704700BF040000200FB400B583B004AB88
:1004800053F8042B01938021064801F019F8002845
:1004900003DD0146034800F037F803B05DF804EBD4
:1004A00004B07047180A00202DE9F04385B00446D7
:1004B0000F4643560BB10E461EE004252846214642
:1004C000ABBE0446384605B0BDE8F08314F9011B05
:1004D00004AA1A4402F8101C0133AB42F6D304AA52
:1004E0001344002203F8102C4FF00408E94640465C
:1004F0004946ABBE8046761B002EE3D03546102E13
:1005000028BF10250023E8E708B5FFF7CDFF08BD99
:1005100008B500F097F8024A024B9A6008BD00BF88
:100520000000000800ED00E008B500F0ABF808BDE1
:10053000F8B504460D4617461E462748FFF79CFFB0
:1005400021682648FFF798FF61682548FFF794FF68
:10055000A1682448FFF790FFE1682348FFF78CFF6C
:1005600021692248FFF788FF61692148FFF784FF6E
:10057000A1692048FFF780FFE1691F48FFF77CFF72
:100580001E48FFF779FF29461D48FFF775FF1D4CF0
:10059000E16A1D48FFF770FF216B1C48FFF76CFFF5
:1005A000E16B1B48FFF768FF15F0800F0AD115F4C7
:1005B000004F0CD11748FFF75FFF06991648FFF769
:1005C0005BFFF8BD39461548FFF756FFEFE73146A8
:1005D0001348FFF751FFEDE7481D0008581D0008BC
:1005E000681D0008781D0008881D0008981D000877
:1005F000A81D0008B81D0008C81D0008D81D000867
:10060000E41D000800ED00E0F41D0008041E0008D1
:10061000141E0008441E00084C1E0008241E00087A
:10062000341E000883691A888A4201D0002070476E
:100630000268033A012A03D802338361012070471C
:10064000002070470C4B1A6842F001021A6000212A
:1006500099601A6822F0847222F480321A60074A84
:100660005A601A6822F480221A60D960044B4FF055
:1006700000629A60704700BF0038024010300024CA
:1006800000ED00E0224B9B6803F00C03042B14D018
:10069000082B16D01BB11F4B1F4A1A6002E01D4BDE
:1006A0001D4A1A601A4B9B68C3F303131B4AD15CA3
:1006B000184A1368CB4013607047164B164A1A60ED
:1006C000F0E7134B5A685B6803F03F0312F4800FA6
:1006D00013D0114AB2FBF3F20D4B5B68C3F38813DE
:1006E00003FB02F30A4A5268C2F30142013252008C
:1006F000B3FBF2F3074A1360D4E7074AB2FBF3F205
:10070000034B5B68C3F3881303FB02F3EAE700BF04
:10071000003802400C0000200024F400901E000865
:1007200008B5074B5B6813F4006F07D0054B5B6996
:100730009847034AD36843F40063D36008BD00BF01
:1007400000640240980A002030B483080A4A023349
:1007500052F8234000F0030080000F25854024EA72
:10076000050442F8234052F823408140214342F8D7
:10077000231030BC704700BF0038014003490B68AC
:10078000012202FA00F003430B607047003C014075
:10079000002308E0054802680121994022EA01028D
:1007A00002600133DBB20F2BF4D97047003C0140EB
:1007B000002307E005480268012199400A430260CE
:1007C0000133DBB20F2BF5D9704700BF003C01406D
:1007D00001290FD011B1022918D07047114BD968E7
:1007E000012202FA00F021EA0001D9609A68104360
:1007F000986070470B4B9968012202FA00F021EAD9
:1008000000019960DA681043D8607047054A916822
:10081000012303FA00F001439160D3681843D060CC
:10082000704700BF003C0140014B1860704700BF9B
:10083000B80A0020014B5860704700BFB80A00207A
:10084000014B9860704700BFB80A0020014BD86088
:10085000704700BFB80A0020014B1861704700BF05
:10086000B80A0020014B5861704700BFB80A002049
:10087000014B9861704700BFB80A0020014B5863D4
:10088000704700BFB80A002008B5044B1B689847A2
:10089000034A536943F00103536108BDB80A0020BD
:1008A000003C014008B5044B5B689847034A536914
:1008B00043F00203536108BDB80A0020003C014028
:1008C00008B5044B9B689847034A536943F00403F7
:1008D000536108BDB80A0020003C014008B5044B34
:1008E000DB689847034A536943F00803536108BD26
:1008F000B80A0020003C014008B5044B1B6998472A
:10090000034A536943F01003536108BDB80A00203D
:10091000003C014008B50E4B5B6913F0200F08D076
:100920000C4B5B6998470A4A536943F020035361B3
:1009300008BD074B5B6913F0400FF9D0054B9B696D
:100940009847034A536943F040035361F0E700BFFF
:10095000003C0140B80A002008B5074B5B6913F45E
:10096000005F07D0054B5B6B9847034A536943F41C
:100970000053536108BD00BF003C0140B80A00208D
:1009800010B4012812D018B102281DD010BC704735
:10099000144B1868490003248C4020EA04001860B6
:1009A000186802FA01F101431960EFE70E4B18686D
:1009B000490003248C4020EA04001860186802FAF9
:1009C00001F101431960E1E7084B1868490003246D
:1009D0008C4020EA04001860186802FA01F1014313
:1009E0001960D3E700000240000402400008024002
:1009F00010B4012812D018B102281DD010BC7047C5
:100A0000144BD868490003248C4020EA0400D860C5
:100A1000D86802FA01F10143D960EFE70E4BD868BC
:100A2000490003248C4020EA0400D860D86802FA08
:100A300001F10143D960E1E7084BD868490003247C
:100A40008C4020EA0400D860D86802FA01F1014322
:100A5000D960D3E7000002400004024000080240D1
:100A6000012817D010B1022827D07047012A0AD0D8
:100A7000002A2DD11A484369012202FA01F123EA22
:100A80000101416170471648436902FA01F11943B7
:100A900041617047012A09D0D2B912484369012245
:100AA00002FA01F123EA0101416170470D484369EF
:100AB00002FA01F1194341617047012A09D03AB99C
:100AC00009484369012202FA01F123EA0101416167
:100AD00070470548436902FA01F1194341617047C3
:100AE00000000240000402400008024030B4012827
:100AF0001CD018B1022831D030BC7047234844685C
:100B000001258D4024EA0504446044688A4022435C
:100B1000426082684C000321A14022EA0102826007
:100B2000826803FA04F111438160E5E718484468DC
:100B300001258D4024EA0504446044688A4022432C
:100B4000426084684A000321914024EA01018160E7
:100B5000846803FA02F121438160CDE70D484468BF
:100B600001258D4024EA0504446044688A402243FC
:100B700042608268490003248C4022EA04028260B9
:100B8000826803FA01F111438160B5E70000024079
:100B9000000402400008024010B4072930D80128A0
:100BA00012D018B102281DD010BC7047304B186A03
:100BB0008C000F21A14020EA01011962186A02FA93
:100BC00004F101431962EFE72A4B1C6A88000F21E8
:100BD000814024EA010119621C6A02FA00F12143F2
:100BE0001962E1E7244B186A89000F248C4020EA3F
:100BF00004001862186A02FA01F101431962D3E78E
:100C0000A1F10803DBB2072BCED8012820D080B198
:100C10000228C9D1184B586A083989000F248C4022
:100C200020EA04005862586A02FA01F1014359624D
:100C3000BAE70F4B586A083989000F248C4020EA24
:100C400004005862586A02FA01F101435962ABE7A5
:100C5000084B586A083989000F248C4020EA0400A8
:100C60005862586A02FA01F1014359629CE700BFD9
:100C700000000240000402400008024010B4440991
:100C8000064951F8243000F01F00012202FA00F05A
:100C9000184341F8240010BC704700BF00E100E099
:100CA000084A136843F001031360064B1B6813F0F6
:100CB000020FFAD0034B9A6822F003029A609A68F6
:100CC0009A60704700380240032822D8DFE800F01D
:100CD000020A121A0F48036B012202FA01F11943AA
:100CE000016370470B48436B012202FA01F119437B
:100CF000416370470748036C012202FA01F119436E
:100D0000016470470348436C012202FA01F1194360
:100D10004164704700380240044B1A6822F0040214
:100D20001A601A6822F001021A60704710E000E0B1
:100D3000044B586000229A601A6842F001021A605F
:100D4000704700BF10E000E0024B1868C0F300409D
:100D5000704700BF10E000E010B1012806D07047D6
:100D6000054A136843F0020313607047024A136890
:100D700023F002031360704710E000E070B50546F1
:100D80000120FFF7E9FF42F2C4039D4213D9294B2A
:100D9000A3FB05235B0B42F2C40202FB13538BB38C
:100DA000244CA4FB05256D0B0135A4FB0334640B17
:100DB0002406002618E04FF4FA6000FB05F0FFF768
:100DC000B7FFFFF7C1FF0028FBD01B4A136823F0D1
:100DD0000103136015E06FF07F40FFF7A9FFFFF7F5
:100DE000B3FF0028FBD0013D35B1002EF3D12046E2
:100DF000FFF79EFF0126F2E70F4A136823F0010375
:100E0000136070BD0B4BA3FB05356D0B002408E090
:100E10006FF07F40FFF78CFFFFF796FF0028FBD0B5
:100E20000134AC42F4D3044A136823F00103136085
:100E3000E7E700BF97A304FA10E000E008B5074B0E
:100E40001B689847FFF780FF054B1B78012B00D0EC
:100E500008BD0120FFF780FFFAE700BF080B002064
:100E6000F80A0020104BDA686FF3CF32DA6040F2F4
:100E700083629A60DA686FF30C32DA60DA686FF3D3
:100E80008A22DA60DA6842F00802DA60DA6842F050
:100E90000402DA605A6942F040025A61DA6842F4A8
:100EA0000052DA600120704700100140064B1B68B9
:100EB00013F0800FFAD0044B5860034B1B6813F0FB
:100EC000400FFAD00120704700100140044B1B680E
:100ED00013F0200FFAD0024B5868C0B2704700BF21
:100EE000001001400246A0F13003D8B2092802D90F
:100EF000A2F13700C0B2704708B57320FFF7D6FFE4
:100F0000FFF746FC08BD000008B5094B1B783BB154
:100F1000FFF73EFC6520FFF7C9FFFFF749FC08BD5E
:100F20006D20FFF7C3FF024B01221A70F0E700BFEC
:100F3000F90A002008B5094B1B783BB1FFF728FCE4
:100F40007A20FFF7B3FFFFF733FC08BD6D20FFF7F2
:100F5000ADFF024B01221A70F0E700BFF90A002032
:100F600008B5094B1B783BB1FFF712FC7620FFF761
:100F70009DFFFFF71DFC08BD6D20FFF797FF024B9B
:100F800001221A70F0E700BFF90A00202DE9F041B4
:100F9000064690F90100C0B2FFF7A4FF804696F91B
:100FA0000200C0B2FFF79EFF40EA08185FFA88F817
:100FB000002501E00135EDB273570BB10A2BF9D1D1
:100FC0002846FFF773FF012411E03057C0B2FFF746
:100FD00089FF0746331993F90100C0B2FFF782FF7A
:100FE00040EA0710C0B2FFF761FF0234E4B2AB1E63
:100FF0009C42EADB4FEA48030933F056C0B2FFF7E0
:1010000071FF044608F1050816F91800C0B2FFF791
:1010100069FF40EA0410C0B2FFF748FFBDE8F08165
:1010200010B5114B1B7863B1FFF7B2FB6320FFF7DC
:101030003DFF0020FFF73AFFCA20FFF737FF0024EB
:101040000CE06D20FFF732FF074B01221A70EBE72F
:10105000064B53F82400FFF799FF0134C92CF7DD44
:10106000FFF7A6FB10BD00BFF90A0020100000200A
:1010700010B5114B1B7863B1FFF78AFB7120FFF7A6
:1010800015FF0120FFF712FF9B20FFF70FFF002441
:101090000CE06D20FFF70AFF074B01221A70EBE707
:1010A000064B53F82400FFF771FF0134B4F5CD7FF0
:1010B000F6DDFFF77DFB10BDF90A002038030020A4
:1010C0002DE9F041054690F90800C0B2FFF70AFF8C
:1010D000012800F08D80044628B1042864D06F20D8
:1010E000FFF7E4FE5EE07020FFF7E0FE95F90100F7
:1010F000C0B2FFF7F7FE804695F90200C0B2FFF7D5
:10110000F1FE40EA08185FFA88F84046FFF7CEFE85
:1011100095F90300C0B2FFF7E5FE064695F9040015
:10112000C0B2FFF7DFFE40EA0610C0B2FFF7BEFE16
:1011300095F90500C0B2FFF7D5FE064695F9060001
:10114000C0B2FFF7CFFE40EA0610C0B2FFF7AEFE16
:1011500025E0A60006F10903E856C0B2FFF7C2FE7B
:10116000074606F10A03E856C0B2FFF7BBFE40EAA5
:101170000710C0B2FFF79AFE0B36A857C0B2FFF7B0
:10118000B1FE0646E31C15F92300C0B2FFF7AAFE24
:1011900040EA0610C0B2FFF789FE0134E4B2B4EBB6
:1011A000580FD6D3BDE8F0816820FFF77FFE95F990
:1011B0000900C0B2FFF796FE044695F90A00C0B2D6
:1011C000FFF790FE40EA0410C0B2FFF76FFE95F9FA
:1011D0000B00C0B2FFF786FE044695F90C00C0B2C2
:1011E000FFF780FE40EA0410C0B2FFF75FFED9E7C8
:1011F0006620FFF75BFEFFF769FE2E2809D0FFF798
:1012000065FE2C28CED1012211461046FFF728FC9E
:10121000C8E7012200211046FFF722FCC2E70000C8
:1012200010B50E4B1B7833B1FFF7B2FA3120FFF740
:101230003DFE00240DE06D20FFF738FE074B012234
:101240001A70F1E7064B53F82400FFF739FF013419
:10125000E4B2C92CF6D9FFF7ABFA10BDF90A0020A9
:101260001000002010B50E4B1B7833B1FFF790FA39
:101270003320FFF71BFE00240CE06D20FFF716FE65
:10128000074B01221A70F1E7064B53F82400FFF7D1
:1012900017FF0134B4F5CD7FF6DDFFF789FA10BDF5
:1012A000F90A00203803002038B5012484F310889F
:1012B000FFF7F6FCFFF730FD00210846FFF704FDBD
:1012C00021460020FFF700FD02210020FFF7FCFC73
:1012D00004210320FFF7F8FC0E210320FFF7F4FCA4
:1012E000FFF7C0FD224600212046FFF749FB0023FF
:1012F0001A4619462046FFF7F9FB224621462046AA
:10130000FFF73EFB00231A4621462046FFF7EEFB7F
:1013100000220D210220FFF733FB22460D2102207F
:10132000FFF766FB00240BE0002221461046FFF782
:1013300027FB012221460020FFF75AFB0134E4B2CB
:10134000062CF1D9022209210020FFF719FB072200
:1013500009210020FFF720FC02220A210020FFF7CC
:101360000FFB07220A210020FFF716FC0620FFF7DB
:1013700085FC0720FFF782FC0820FFF77FFC09208F
:10138000FFF77CFC0A20FFF779FC1720FFF776FCBB
:101390002820FFF773FC002409E0E5B2002128466D
:1013A000FFF7D2F901212846FFF712FA0134062C83
:1013B000F3DD02210D20FFF7C7F901210D20FFF712
:1013C00007FA1D48FFF730FA1C48FFF733FA1C48AC
:1013D000FFF736FA1B48FFF739FA1B48FFF73CFACC
:1013E0001A48FFF73FFA1A48FFF742FA1948FFF781
:1013F00045FA002403E0E0B2FFF7C0F90134062CFF
:10140000F9DD0D20FFF7BAF9002484F3108805E018
:1014100041F65830FFF7B2FC0134E4B2032CF7D99F
:101420000D4B1B780BB1002038BDFFF7B1F97820C8
:10143000FFF73CFDF7E700BF211200086512000826
:10144000090F0008350F0008610F0008211000087F
:1014500071100008F90E0008F90A0020014B186805
:10146000704700BFA409002030B5141E05469BB08C
:10147000184605DA8B232B604FF0FF301BB030BDD0
:101480004FF40273ADF80C3014BF04F1FF33234660
:10149000029305934FF6FF7300910491ADF80E305F
:1014A00002461E9B6946284600F072F8431CBCBFEA
:1014B0008B232B60002CE1D0009B00221A70DDE70B
:1014C00007B5009313460A46014603480068FFF734
:1014D000CBFF03B05DF804FBA40900202DE9F04721
:1014E0008E689E4282460C469046994637D88A8935
:1014F00012F4906F31D0256809696F1A656902236B
:1015000005EB450595FBF3F509F101033B449D42CD
:1015100038BF1D46530530D5294600F07BFB0646F3
:1015200050B90C23CAF80030A38943F04003A381CB
:101530004FF0FF30BDE8F0873A46216900F0F8FA35
:10154000A38923F4906343F08003A381266165613E
:101550003E44ED1B2660A5604E464E4500D94E46E2
:1015600032464146206800F0EEFAA3689B1BA36058
:1015700023681E4426600020DCE72A4600F0A4FB16
:1015800006460028E2D12169504600F0F5FAC8E786
:101590002DE9F04F9DB0804603938B891D060C46C4
:1015A00016460FD50B696BB9402100F033FB206064
:1015B000206128B90C23C8F800304FF0FF30C7E095
:1015C000402363610023099320238DF829303023C1
:1015D0008DF82A304FF0010B37463D4615F8013B98
:1015E0000BB1252B3ED1B7EB060A0BD05346324642
:1015F00021464046FFF772FF013000F0A480099BAE
:10160000534409933B78002B00F09D8000234FF05A
:10161000FF32CDE90523049307938DF853301A93D5
:101620002F46052217F8011B4F4800F031FA049BA2
:10163000D0B9D90644BF20228DF853201A0744BFE1
:101640002B228DF853202A782A2A15D0079A2F4664
:1016500000200A25394611F8013B303B092B4DD9B2
:10166000B8B10FE02F46B8E73F4A801A0BFA00F0F6
:10167000184304903D46D3E7039A111D1268039165
:10168000002A01DB079204E0524243F00203079272
:1016900004933B782E2B0CD17B782A2B33D1039BE0
:1016A0001A1D1B680392002BB8BF4FF0FF3302379F
:1016B00005932E4D39780322284600F0E9F938B118
:1016C0004023401B03FA00F0049B034301370493BB
:1016D000397827488DF8281006227E1C00F0D8F9AA
:1016E000002838D0234B13BB039B073323F0070399
:1016F00008330393099B4B4409936DE705FB0232C2
:1017000001200F46A6E700230137059319460A2555
:10171000384610F8012B303A092A03D9002BC8D0DB
:101720000591C6E705FB012101230746F0E703AB5E
:1017300000932246104B04A94046AFF30080B0F15D
:10174000FF3F8146D6D1A3895B063FF536AF0998A6
:101750001DB0BDE8F08F03AB00932246064B04A9F1
:10176000404600F081F8EAE7988600089E86000867
:10177000A286000800000000DD1400082DE9F047F3
:1017800091461F468A680B69DDF820809342B8BFF6
:101790001346C9F8003091F8432006460C4612B1B2
:1017A0000133C9F800302368990642BFD9F80030E8
:1017B0000233C9F80030256815F0060507D104F199
:1017C000190AE368D9F800209B1AAB4228DC94F888
:1017D00043302268003318BF012392062DD404F150
:1017E000430239463046C047013020D02368E568BF
:1017F000D9F8002003F00603042B08BFAD1AA36834
:1018000022690CBF25EAE57500259342C4BF9B1AE7
:10181000ED184FF000091A344D451AD1002008E0A8
:101820000123524639463046C047013003D14FF0BC
:10183000FF30BDE8F0870135C3E7E1185A1C3020BE
:1018400081F84300224494F8451082F84310023393
:10185000C5E70123224639463046C0470130E6D06D
:1018600009F10109D8E700002DE9F04301F1430C2B
:101870000C46097E85B06E291746064698460C9A96
:1018800000F0B38022D8632936D00AD8002900F0AE
:10189000B980582900F0838004F1420584F8421091
:1018A00032E0642901D06929F6D120681368050661
:1018B00003F104012AD51B681160002B03DA2D22E5
:1018C0005B4284F843206F480A2239E0732900F014
:1018D0009D8008D86F2920D07029DDD1236843F07E
:1018E0002003236003E0752917D07829D4D1782309
:1018F00084F84530644855E01368191D1B68116071
:1019000004F1420584F8423001238CE01B68116029
:1019100010F0400F18BF1BB2CFE713682568181DE1
:101920001060280601D51B6802E06806FBD51B88FD
:1019300054486F2914BF0A220822002184F843105A
:101940006568A560002DC0F29580216821F0040132
:101950002160002B3DD1002D40F08E806546082A85
:101960000BD12368DB0708D5236962689A42DEBF82
:10197000302305F8013C05F1FF35ACEB050323618D
:10198000CDF800803B4603AA21463046FFF7F6FE1D
:1019900001304DD14FF0FF3005B0BDE8F08339483C
:1019A00084F84510136821681D1D1B6815600A0620
:1019B0000BD5CA0744BF41F0200121601BB9226842
:1019C00022F0200222601022B7E74D0648BF9BB2EA
:1019D000EFE76546B3FBF2F102FB1133C35C05F898
:1019E000013D0B460029F5D1B9E713682568616907
:1019F000181D106028061B6801D5196002E06A06F0
:101A0000FBD51980002323616546B9E71368191DCA
:101A100011601D6862680021284600F039F808B19D
:101A2000401B606063682361002384F84330A7E7AC
:101A300023692A4639463046C0470130AAD0236878
:101A40009B0713D4E068039B9842B8BF1846A3E7EE
:101A500001234A4639463046C04701309AD0013505
:101A6000E368039A9B1AAB42F2DCEBE7002504F132
:101A70001909F5E7002BACD1037884F8423004F162
:101A800042056CE7A9860008BA860008000000003D
:101A900001F0FF01102A2BDB10F0070F08D010F81F
:101AA000013B013A8B422DD010F0070F42B3F6D123
:101AB000F0B441EA012141EA014122F007047FF03C
:101AC00000070023F0E80256083C85EA010586EA93
:101AD000010685FA47F5A3FA87F586FA47F6A5FACF
:101AE00087F68EB9EED1F0BC01F0FF0102F00702DB
:101AF00032B110F8013B013A83EA010313B1F8D186
:101B00000020704701387047002D06BF3546033866
:101B1000073815F0010F07D1013015F4807F02BF9F
:101B2000013015F4C03F0130F0BC0138704700BFF0
:101B300010B5431E0A44914200D110BD11F8014B6B
:101B400003F8014FF7E7884210B501EB020307D80D
:101B5000421E99420AD011F8014B02F8014FF8E7F2
:101B60008342F5D98118D21AD34200D110BD13F89F
:101B7000014D01F8014DF7E738B50546002945D07C
:101B800051F8043C0C1F002BB8BFE41800F0D2F849
:101B90001F4A1368104633B9636014602846BDE8D5
:101BA000384000F0C8B8A3420CD9216862189342AB
:101BB00004BF1A685B68636004BF52182260046047
:101BC000ECE713465A680AB1A242FAD919685818C4
:101BD000A0420BD120680144581882421960DDD11F
:101BE000106852685A6001441960D7E702D90C2383
:101BF0002B60D3E7206821188A4204BF116852681D
:101C0000626004BF091821605C60C7E738BD00BF8F
:101C1000FC0A002070B5CD1C25F0030508350C2DFD
:101C200038BF0C25002D064601DBA94203D90C2341
:101C30003360002070BD00F07DF8214A1468214611
:101C400091B9204C23681BB9304600F063F820603E
:101C50002946304600F05EF8431C24D10C23336043
:101C6000304600F068F8E4E70B685B1B18D40B2BD8
:101C70000FD90B60CD50CC18304600F05CF804F161
:101C80000B00231D20F00700C31AD3D05A42E250A4
:101C9000D0E78C424B6816BF636013600C46EBE7DD
:101CA0000C464968CCE7C41C24F00304A04205D0CC
:101CB000211A304600F02EF80130CFD02560DBE746
:101CC000FC0A0020000B0020F8B5074614460E461B
:101CD00021B91146BDE8F840FFF79CBF22B9FFF7D4
:101CE0004BFF25462846F8BD00F026F8A0420FD24B
:101CF00021463846FFF78EFF05460028F2D03146D0
:101D00002246FFF715FF31463846FFF735FFE9E772
:101D10003546E7E738B5064C0023054608462360FC
:101D2000FEF780FB431C02D1236803B12B6038BD52
:101D3000040B00207047704751F8043C181F002B1B
:101D4000BCBF0B58C0187047537461636B20667238
:101D5000616D653A0A000000205230203D202025A8
:101D60003038580A00000000205231203D20202544
:101D70003038580A00000000205232203D20202533
:101D80003038580A00000000205233203D20202522
:101D90003038580A0000000020523132203D202502
:101DA0003038580A00000000204C52203D202025E9
:101DB0003038580A00000000205043203D202025E4
:101DC0003038580A0000000020505352203D202592
:101DD0003038580A000000004653522F4641523A0C
:101DE0000A0000002043465352203D202025303871
:101DF000580A00002048465352203D202025303804
:101E0000580A00002044465352203D2020253038F7
:101E1000580A00002041465352203D2020253038EA
:101E2000580A0000204D4D464152203D20253038B3
:101E3000580A00002042464152203D2020253038DB
:101E4000580A00004D6973630A000000204C522FAD
:101E50004558435F52455455524E3D202530385821
:101E60000A0000005B486172644661756C745D0A2B
:101E7000000000005B4275734661756C745D0A007A
:101E80005B55736167654661756C745D0A0000009F
:101E9000000000000000000001020304060708091A
:101EA0003A30323030303030343038303146310032
:101EB0003A31303030303030303030303030313214
:101EC00030433530323031303843423032303130C7
:101ED0003843463032303130383446003A313030D1
:101EE00030313030303431303330313038343530D7
:101EF00033303130383844303330313038303030AE
:101F000030303030304139003A31303030323030DA
:101F100030303030303030303030303030303030C1
:101F20003030303030303030304435303330313094
:101F3000384546003A313030303330303044393073
:101F4000333031303830303030303030304444305D
:101F5000333031303845313033303130383035007E
:101F60003A31303030343030304631303330313047
:101F7000384631303330313038463130333031301B
:101F80003846313033303130384243003A31303026
:101F90003035303030463130333031303846313002
:101FA00033303130384539303730313038303530F2
:101FB00038303130383937003A313030303630301F
:101FC00030323130383031303846313033303130E2
:101FD00038463130333031303846313033303130BB
:101FE000383637003A3130303037303030463130E3
:101FF000333031303846313033303130384631309B
:1020000033303130384631303330313038384300B6
:102010003A31303030383030304631303330313092
:10202000384631303330313038463130333031306A
:102030003830303030303030303739003A313030AD
:102040003039303030303030303030303030303087
:102050003030303030303030303030303046313069
:1020600033303130383633003A313030304130306F
:102070003046313033303130384631303330313022
:10208000384631303330313038463130333031300A
:10209000383543003A31303030423030304631301C
:1020A00033303130384631303330313038463130EA
:1020B000333031303846313033303130383443000A
:1020C0003A313030304330303046313033303130D7
:1020D00038463130333031303846313033303130BA
:1020E0003846313033303130383343003A313030D4
:1020F0003044303030463130333031303846313092
:1021000033303130384631303330313038303030A0
:1021100030303030303239003A31303030453030C4
:102120003046313033303130384631303330313071
:102130003846313033303130383030303030303074
:10214000303139003A313030304630303030303094
:10215000303030303030303030303030303030307F
:102160003030303030463130333031303830330079
:102170003A31303031303030303030303030303053
:102180003046313033303130384631303330313011
:102190003846313033303130384638003A3130301B
:1021A000313130303030303030303030303030302D
:1021B000303030303030303030303030303030301F
:1021C00030303030304446003A3130303132303007
:1021D00030323130373031303846313033303130D1
:1021E00038463130333031303846313033303130A9
:1021F000384137003A3130303133303030463130C9
:1022000033303130383030303030303030303030C2
:1022100030303030303030303030303030433200D9
:102220003A3130303134303030303030303030309E
:10223000303030303030303030303030303030309E
:102240003046313033303130384232003A3130307C
:10225000313530303046313033303130384631303E
:102260003330313038463130333031303846313028
:1022700033303130384142003A313030313630304D
:102280003046313033303130384631303330313010
:102290003830303030303030303030303030303036
:1022A000303935003A31303031373030303030303D
:1022B000303030303030303030303030303030301E
:1022C0003030303030303030303030303037460021
:1022D0003A313030313830303030303030303030EA
:1022E00030463130333031303830303030303030CB
:1022F0003030303030303030303732003A313030FA
:10230000313930303046313033303130383030428E
:102310003538334230303046304241463933383434
:1023200042333934414431003A3130303141303078
:102330003031333630333934413133363033393458
:10234000393030453032313436333834423939342B
:10235000324246003A31303031423030303042443F
:1023600032304136383442363830314631304330FD
:102370003438383638393834324634443941340008
:102380003A3130303143303030313136383139360E
:1023900030303433333034333246384537324534D5
:1023A0004231413638333134423741003A313030EE
:1023B0003144303030394134323030443046454594
:1023C000373243344231413638324634423941346F
:1023D00032463944313735003A31303031453030CA
:1023E000303237344232453441313336303245347D
:1023F0004131333630324534423035453030303279
:10240000303439003A3130303146303030313036C6
:102410003030343332393334324641443830423448
:10242000363242344139333432303444323431007C
:102430003A3130303230303030313934363531465F
:102440003830383242354236384634453732343403
:102450004231423638313342394237003A31303036
:102460003231303030323334423142363830334218
:1024700031464545373030463038364639363934BE
:1024800036303141383844003A3130303232303031
:1024900030303046303232463932313443323234E1
:1024A00042453431414134313030303235414334AA
:1024B000323234003A31303032333030303134441B
:1024C0004332303443323034424534314141343187
:1024D00030303032354143343231334443343300C9
:1024E0003A313030323430303030303939303139BF
:1024F000383030463039364644303534363143345E
:102500004331433442453431414531003A31303072
:102510003235303030413431303030324330454460
:102520004332383436303046304532463831343430
:1025300042353346384632003A3130303236303068
:102540003032353330393834373031333545324530
:102550003731333442353346383235333039383415
:10256000373745003A313030323730303030313360
:1025700035453345373031334331323442353346D4
:102580003832343330393834374538453739370005
:102590003A313030323830303042414241444543A4
:1025A000413030303030303230373430303030320B
:1025B0003046343033303130383945003A313030FC
:1025C00032393030303043303430313038373835CC
:1025D00036333431323332353437363938373830B0
:1025E00030303032303035003A31303032413030F6
:1025F00030373430313030323030433034303130B5
:102600003831433034303130383143303430313088
:10261000383445003A313030324230303031433096
:102620003430313038314330343031303831433068
:102630003430313038314330343031303839410082
:102640003A31303032433030303143303430313051
:1026500038303842354646463736354646303042C1
:102660004546454537314546303344003A313030F0
:1026700032443030303034304630434246454646AE
:1026800033303838304546463330393830373134D6
:1026900036343134413239003A313030324530301D
:1026A00030313034373244453946303431383242B3
:1026B00030303434363838343631323442354536B9
:1026C000423030003A3130303246303030394636E0
:1026D000423944364131423642313346303032306D
:1026E000463033443030453442444236414532006E
:1026F0003A31303033303030303030324230434491
:10270000423044343830304630423746384344460D
:102710003830303830334234363231003A313030AC
:10272000333130303033323436323934363230347B
:1027300036303046303042463930304245464545E5
:1027400037344246364238003A3130303332303056
:1027500030414236313030463037464639303032FB
:1027600038454344303033344234464630303034D8
:10277000324136003A313030333330303044413634
:1027800032303242304244453846303831303045BC
:102790004430304530363431383031303836370017
:1027A0003A313030333430303030304245464545B0
:1027B0003731454630303430463043424645464650
:1027C0003330383830454646334432003A313030C1
:1027D00033353030303039383037313436323434C4
:1027E0004131303437324445394630343138324261
:1027F00030303434364435003A31303033363030CE
:102800003038383436303834423545364239463639
:102810004239443641303734383030463038344627
:10282000384437003A313030333730303043444663
:10283000383030383033423436333234363239344B
:102840003632303436303046304438463841410034
:102850003A313030333830303030304245464545FB
:10286000373030454430304530373431383031300E
:102870003831454630303430463437003A31303024
:1028800033393030303043424645464633303838AD
:1028900030454646333039383037313436313334C9
:1028A00041313034373532003A3130303341303015
:1028B00030324445394630343138324230303434A5
:1028C0003638383436303834423545364239463673
:1028D000423936003A3130303342303030394436C4
:1028E000413037343830304630363046384344464D
:1028F00038303038303342343633323436363100C3
:102900003A3130303343303030323934363230348B
:102910003630304630423446383030424546454500
:102920003730304544303045303443003A31303070
:102930003344303030383031383031303830304254
:1029400045464545373030424546454537303042AB
:1029500045464545373933003A313030334530301C
:10296000303730343730303030453330323031303A
:10297000383539303330313038413130333031301F
:10298000383536003A30343033463030303030422B
:1029900045464545373636003A31303033463430D7
:1029A00030463031383031303830303030303032FD
:1029B00030373830303030323046303138303130E6
:1029C000383146003A313030343034303030303005
:1029D00030303031303030303030303130373830E6
:1029E00030303032303738303130303230393700F3
:1029F0003A303830343134303030303030303031BB
:102A00003030303030303031304330003A313030D7
:102A1000343230303046454537303030303038424F
:102A20003530333436304334413132363835414233
:102A300031304234414231003A3130303433303079
:102A40003031303638303333333233463030333050
:102A5000333033343430393441393334323036441E
:102A6000384138003A313030343430303030363458
:102A700041313336303038424430353441303634E9
:102A800039313136304546453730304630344600EE
:102A90003A313030343530303030334644304332E0
:102AA000333033363034464630464633304633458D
:102AB0003737433030303032303236003A31303010
:102AC00034363030303030464330303230373830C2
:102AD00031303032303031323330333630303134DF
:102AE00042304236303939003A31303034373030C4
:102AF0003037303437303042463034303030303296
:102B00003030464234303042353833423030344150
:102B1000423838003A31303034383030303533468E
:102B20003830343242303139333830323130363463
:102B30003830304630313746443030323834330064
:102B40003A3130303439303030303344443031343D
:102B5000363033343830304630333746383033420D
:102B60003035444638303445424434003A31303010
:102B7000344130303030344230373034373834300C
:102B800030303032303244453946303433383542D3
:102B900030303434363735003A313030344230302A
:102BA00030304634363433353630424231304534B5
:102BB00036314545303034323532383436323134BE
:102BC000363432003A3130303443303030414242D2
:102BD000453034343633383436303542304244456B
:102BE00038463038333134463930313142303500AF
:102BF0003A31303034443030303034414131413476
:102C0000343032463831303143303133334142345D
:102C10003246364433303441413532003A31303077
:102C20003445303030313334343030323230334662
:102C30003831303243344646303034303845393418
:102C400036343034363543003A3130303446303063
:102C500030343934364142424538303436373631F3
:102C600042303032454533443033353436313032FA
:102C7000453133003A31303035303030303238423F
:102C800046313032353030323345384537303842CE
:102C90003546464637434446463038424439390083
:102CA0003A313030353130303030384235303046DE
:102CB0003039374638303234413032344239413697
:102CC0003030384244303042463838003A313030C3
:102CD00035323030303030303030313038303045CF
:102CE000443030453030384235303046304142464D
:102CF00038303842444530003A31303035333030A6
:102D00003046384235303434363044343631373456
:102D100036314534363237343846464637394346FD
:102D2000464230003A31303035343030303231368E
:102D300038323634384646463739384646363136E4
:102D40003832353438464646373934464636380008
:102D50003A31303035353030304131363832343434
:102D600038464646373930464645313638323334B0
:102D70003846464637384346463643003A313030C7
:102D800035363030303231363932323438464646D4
:102D90003738384646363136393231343846464689
:102DA00037383446463645003A31303035373030E2
:102DB000304131363932303438464646373830467D
:102DC000464531363931463438464646373743462C
:102DD000463732003A3130303538303030314534D2
:102DE0003846464637373946463239343631443428
:102DF0003846464637373546463144344346300038
:102E00003A31303035393030304531364131443463
:102E100038464646373730464632313642314334FB
:102E20003846464637364346464635003A31303016
:102E300035413030304531364231423438464646ED
:102E400037363846463135463038303046304144E2
:102E500031313546344337003A3130303542303045
:102E600030303034463043443131373438464646CA
:102E70003735464646303639393136343846464697
:102E8000373639003A31303035433030303542460C
:102E9000464638424433393436313534384646466E
:102EA00037353646464546453733313436413800A6
:102EB0003A3130303544303030313334384646469C
:102EC000373531464645444537343831373031306F
:102ED0003835383137303130384336003A313030D8
:102EE0003545303030363831373031303837383199
:102EF000373031303838383137303130383938318F
:102F000037303130383842003A31303035463030A1
:102F10003041383137303130384238313730313064
:102F20003843383137303130384438313730313048
:102F3000383742003A313030363030303045343175
:102F40003730313038303045443030453046343118
:102F50003730313038303431383031303845300066
:102F60003A31303036313030303134313830313040
:102F7000383434313830313038344331383031300E
:102F80003832343138303130383845003A31303029
:102F900036323030303334313830313038383336FF
:102FA00039314138383841343230314430303032C0
:102FB00030373034373733003A3130303633303011
:102FC00030303236383033334130313241303344AF
:102FD00038303233333833363130313230373034C1
:102FE000373143003A3130303634303030303032DF
:102FF000303730343730433442314136383432465A
:1030000030303130323141363030303231324100BF
:103010003A3130303635303030393936303141366A
:103020003832324630383437323232463438303340
:103030003231413630303734413834003A31303073
:10304000363630303035413630314136383232461E
:10305000343830323231413630443936303034341D
:1030600042344646303535003A313030363730302C
:103070003030303632394136303730343730304204
:103080004630303338303234303130333030303213
:10309000344341003A31303036383030303030450A
:1030A000443030453032323442394236383033469B
:1030B00030304330333034324231344430313800F0
:1030C0003A313030363930303030383242313644AF
:1030D0003031424231314634423146344131413659
:1030E0003030324530314434424445003A3130309A
:1030F0003641303030314434413141363031413461
:103100004239423638433346333033313331423437
:1031100041443135434133003A313030364230306A
:10312000303138344131333638434234303133363C
:10313000303730343731363442313634413141362C
:10314000304544003A313030364330303046304537
:1031500037313334423541363835423638303346EC
:103160003033463033313246343830304641360021
:103170003A3130303644303030313344303131340C
:10318000414232464246334632304434423542367A
:103190003843334633383831334445003A313030E0
:1031A00036453030303033464230324633304134A9
:1031B00041353236384332463330313432303133B0
:1031C00032353230303843003A31303036463030E4
:1031D000304233464246324633303734413133365B
:1031E0003044344537303734414232464246334624
:1031F000323035003A3130303730303030303334DF
:10320000423542363843334633383831333033462B
:103210004230324633454145373030424630340043
:103220003A3130303731303030303033383032347A
:103230003030433030303032303030323446343059
:103240003039303138303130383641003A31303071
:103250003732303030303842353034344231423613
:1032600038393834373033344139333638343346EB
:1032700030323030334244003A313030373330303E
:1032800030393336303038424430343031303032F7
:1032900030303036343032343033304234383330FA
:1032A000384337003A313030373430303030413401
:1032B00041303233333532463832333430303046B1
:1032C00030303330303830303030463235434300E0
:1032D0003A313030373530303038353430323445AB
:1032E000413035303434324638323334303532467A
:1032F0003832333430383134304232003A313030C1
:10330000373630303032313433343246383233317C
:103310003033304243373034373030424630303348
:1033200038303134304444003A313030373730307F
:103330003030333439304236383031323230324640
:103340004130304630303334333042363037303429
:10335000373433003A313030373830303030303372
:1033600043303134303031323930464430313142FB
:103370003130323239313844303730343735370034
:103380003A313030373930303031313442443936E7
:1033900038303132323032464130304630323145C9
:1033A0004130303031443936303638003A313030FF
:1033B00037413030303941363831303433393836AE
:1033C00030373034373042344239393638303132A0
:1033D00032303246414346003A31303037423030A5
:1033E0003030304630323145413030303139393685
:1033F0003044413638313034334438363037303465
:10340000374330003A3130303743303030303534A4
:10341000413931363830313233303346413030463D
:103420003030313433393136304433363836300089
:103430003A3130303744303030313834334430363C
:103440003037303437303042463030334330313427
:103450003030313442393836303537003A31303057
:103460003745303030373034373030424632343000
:1034700031303032303038423530343442314236F7
:1034800038393834374530003A313030374630300B
:1034900030303334413533363934334630303130DF
:1034A00033353336313038424432343031303032D3
:1034B000304642003A3130303830303030303033FE
:1034C000433031343030384235303434423542368E
:1034D00038393834373033344135333639423400B3
:1034E0003A313030383130303034334630303230A9
:1034F0003335333631303842443234303130303283
:103500003030303343303134303635003A313030BA
:103510003832303030303842353034344239423647
:10352000383938343730333441353336393433462B
:1035300030303430333937003A313030383330308E
:103540003035333631303842443234303130303235
:103550003030303343303134303130423430313236
:10356000383930003A31303038343030303132444C
:1035700030313842313032323831444430313042E7
:103580004337303437313434423138363838340008
:103590003A31303038353030303439303030333201
:1035A00034384334303230454130343030313836BD
:1035B0003031383638303246413541003A313030DA
:1035C00038363030303031463130313433313936BD
:1035D0003045464537304534423138363834393055
:1035E00030303332344241003A31303038373030C5
:1035F0003038433430323045413034303031383671
:10360000303138363830324641303146313031345D
:10361000333734003A3130303838303030313936A1
:103620003045314537303834423138363834393026
:103630003030333234384334303230454130450055
:103640003A3130303839303030303430303138364B
:10365000303138363830324641303146313031340D
:103660003331393630443345374637003A3130301C
:10367000384130303030303030303234303030302B
:10368000343032343030303038303234303130420F
:1036900034303132383839003A3130303842303015
:1036A00030313244303138423130323238314444B2
:1036B0003031304243373034373134344244383695
:1036C000383534003A3130303843303030343930E6
:1036D0003030333234384334303230454130343096
:1036E000304438363044383638303246413641007E
:1036F0003A31303038443030303031463130313486
:1037000033443936304546453730453442443836FF
:103710003834393030303332344341003A3130308C
:103720003845303030384334303230454130343031
:1037300030443836304438363830324641303146FD
:1037400031303134333834003A313030384630306B
:1037500030443936304531453730383442443836D4
:103760003834393030303332343843343032304505
:10377000413145003A31303039303030303034303A
:1037800030443836304438363830324641303146AD
:1037900031303134334439363044334537343600F0
:1037A0003A313030393130303030303030303234FE
:1037B00030303030343032343030303038303234F1
:1037C0003030313238313744304635003A313030DC
:1037D00039323030303130423130323238323744A1
:1037E000303730343730313241304144303030328C
:1037F00041324444313031003A31303039333030A5
:103800003031413438343336393031323230324667
:103810004130314631323345413031303134313647
:10382000314537003A313030393430303037303488
:103830003731363438343336393032464130314618
:103840003131393433343136313730343734330071
:103850003A3130303935303030303132413039441E
:1038600030443242393132343834333639303132FF
:103870003230324641303146314631003A31303013
:1038800039363030303233454130313031343136F1
:1038900031373034373044343834333639303246C7
:1038A00041303146313330003A3130303937303001
:1038B00030313934333431363137303437303132D6
:1038C0004130394430334142393039343834333679
:1038D000394345003A3130303938303030303132C8
:1038E0003230324641303146313233454130313069
:1038F00031343136313730343730353438413100B6
:103900003A3130303939303030343336393032466C
:103910004130314631313934333431363137303456
:103920003730303030303234304336003A31303096
:103930003941303030303030343032343030303063
:103940003830323430303132383133443031304233
:1039500031303232384330003A3130303942303051
:103960003032304430373034373031324130374400
:1039700030324142423130333130313233303346EC
:10398000413437003A31303039433030303031460D
:1039900031313434423939363137303437303132DD
:1039A00033303346413031463131313442423600D2
:1039B0003A313030394430303039393631373034BB
:1039C0003730313241303744304141423931303380
:1039D0003130313233303346413946003A313030BC
:1039E000394530303030314631304434423939365F
:1039F000313730343730313233303346413031466D
:103A000031304134424134003A313030394630307F
:103A1000303939363137303437303132413037444C
:103A20003032414239313033313031323330334644
:103A3000414646003A313030413030303030314646
:103A4000313036344239393631373034373031322B
:103A5000333033464130314631303334423931002E
:103A60003A31303041313030303939363137303415
:103A7000373030303030323430303030343032342F
:103A80003030303038303234303533003A31303045
:103A900041323030303330423430313238314344C7
:103AA00030313842313032323833314430333042C1
:103AB00043373034373336003A31303041333030E9
:103AC00030323334383434363830313235384434A7
:103AD0003032344541303530343434363034343695
:103AE000383435003A3130304134303030384134B8
:103AF0003032323433343236303832363834433080
:103B00003030333231413134303232454138450082
:103B10003A31303041353030303031303238323671
:103B20003038323638303346413034463131313432
:103B30003338313630453545374434003A3130304A
:103B40004136303030313834383434363830313230
:103B500035384434303234454130353034343436FD
:103B600030343436383230003A313030413730304A
:103B700030384134303232343334323630383436FF
:103B800038344130303033323139313430323445E9
:103B9000413643003A313030413830303030313006
:103BA00031383136303834363830334641303246A9
:103BB00031323134333831363043444537414500B2
:103BC0003A313030413930303030443438343436A2
:103BD0003830313235384434303234454130353084
:103BE0003434343630343436384642003A313030AA
:103BF000414130303038413430323234333432366F
:103C00003038323638343930303033323438433467
:103C100030323245413433003A3130304142303075
:103C2000303034303238323630383236383033464D
:103C30004130314631313134333831363042354517
:103C4000374134003A313030414330303030303059
:103C50003030323430303030343032343030303054
:103C60003830323430313042343037323936300047
:103C70003A313030414430303033304438303132F2
:103C800038313244303138423130323238314444C4
:103C90003031304243373034374130003A31303000
:103CA000414530303033303442313836413843309A
:103CB00030304632314131343032304541303130AC
:103CC00031313936324535003A31303041463030C5
:103CD000303138364130324641303446313031347B
:103CE0003331393632454645373241344231433635
:103CF000414633003A31303042303030303838309D
:103D00003030463231383134303234454130313060
:103D10003131393632314336413032464135460051
:103D20003A31303042313030303030463132313457
:103D30003331393632453145373234344231383611
:103D40004138393030304632343930003A31303051
:103D50004232303030384334303230454130343004
:103D600030313836323138364130324641303146E2
:103D700031303134334244003A3130304233303024
:103D800030313936324433453741314631303830BD
:103D90003344424232303732424345443830313284
:103DA000383535003A3130304234303030323044FA
:103DB000303830423130323238433944313138349E
:103DC00042353836413038333938393030443100B3
:103DD0003A31303042353030303046323438433486
:103DE000303230454130343030353836323538367F
:103DF0004130324641303146313145003A31303080
:103E00004236303030303134333539363242414544
:103E10003730463442353836413038333938393026
:103E200030304632344343003A313030423730305C
:103E30003038433430323045413034303035383624
:103E40003235383641303246413031463130313406
:103E5000334544003A31303042383030303539362D
:103E600032414245373038344235383641303833C4
:103E70003938393030304632343843343033410009
:103E80003A313030423930303032304541303430E0
:103E900030353836323538364130324641303146A9
:103EA0003130313433353936324445003A313030EF
:103EB000424130303039434537303042463030307F
:103EC00030303234303030303430323430303030E2
:103ED00038303234303331003A31303042423030D1
:103EE000303130423434343039303634393531467B
:103EF0003832343330303046303146303030313281
:103F0000323036003A313030424330303030324691
:103F10004130304630313834333431463832343041
:103F20003031304243373034373030424633460048
:103F30003A31303042443030303030453130304525
:103F40003030383441313336383433463030313024
:103F50003331333630303634423843003A31303042
:103F600042453030303142363831334630303230ED
:103F70004646414430303334423941363832324695
:103F800030303330323344003A3130304246303012
:103F900030394136303941363839413630373034AE
:103FA00037303033383032343030333238323244D4
:103FB000384139003A3130304330303030444645B2
:103FC0003830304630303230413132314130463491
:103FD00038303336423031323230324641313100BE
:103FE0003A3130304331303030303146313139348C
:103FF0003330313633373034373042343834333677
:104000004230313232303246413442003A3130307F
:104010004332303030303146313139343334313657
:104020003337303437303734383033364330313249
:1040300032303246413345003A313030433330304C
:104040003030314631313934333031363437303431
:10405000373033343834333643303132323032460D
:10406000413331003A313030433430303030314632
:10407000313139343334313634373034373030330A
:1040800038303234303034344231413638414600F1
:104090003A313030433530303032324630303430DF
:1040A00032314136303141363832324630303130BB
:1040B0003231413630373034373341003A313030E5
:1040C00043363030303130453030304530303434A4
:1040D000423538363030303232394136303141367F
:1040E00038343246304444003A313030433730308F
:1040F0003030313032314136303730343730304281
:10410000463130453030304530303234413133364D
:10411000384541003A313030433830303032334660
:104120003030313033313336303730343731304559
:10413000303030453030323442313836383836005D
:104140003A31303043393030304330463330303418
:1041500030373034373030424631304530303045FA
:104160003030384235303834423042003A31303025
:1041700043413030303033464230304630303734CF
:10418000424133464230303330383030394646468B
:1041900037444146464445003A313030434230309E
:1041A000304646463745434646303032384642442C
:1041B0003046464637453046463038424430304235
:1041C000463037003A3130304343303030383038C1
:1041D0003431453030443334443632313030453474
:1041E000424441363836464633434633323732004E
:1041F0003A31303043443030304441363034304648
:104200003238333632394136304441363836464614
:104210003330433332444136304144003A31303058
:1042200043453030304441363836464633384132E3
:1042300032444136304441363834324630303830FA
:1042400032444136304332003A3130304346303028
:1042500030444136383432463030343032444136DE
:1042600030444136383432463430303532444136C9
:10427000303343003A31303044303030303730342E
:1042800037303042463030313030313430303334F2
:1042900042314236383133463038303046423900C8
:1042A0003A313030443130303046414430303134AE
:1042B00042353836303730343730303130303134C1
:1042C0003033384235303534364335003A313030CA
:1042D0004432303030303032343033453046464668
:1042E0003746304646303133344534423232383541
:1042F00044303032383546003A3130304433303093
:10430000304638443133384244313042353042341B
:1043100038464646374630464634464630303036D4
:10432000333536003A31303044343030303039347F
:10433000413133363031423638383346333038380D
:104340003830383442314236383038344332410024
:104350003A3130304435303030323336303031322B
:1043600032304332313130343646464637453046B6
:104370004432333638393834373244003A31303009
:1043800044363030303130424430304246413031B2
:1043900038303130383038454430304530303430C2
:1043A00030303030383535003A3130304437303005
:1043B0003037303031303032303038423546464692
:1043C0003732444646464646373637464630303220
:1043D000313836003A3130304438303030303834CB
:1043E0003646464637334246463031323130303237
:1043F0003046464637333746463034323135320060
:104400003A3130304439303030303332304646463D
:104410003733334646304532313033323046464604
:104420003732464646464646373943003A31303001
:10443000444130303039334646303232323039320E
:1044400031303032304646463734384644303732E1
:1044500032303932314235003A3130304442303036
:1044600030303032304646463738424645303232B8
:1044700032304132313030323046464637334546AD
:10448000444634003A3130304443303030303732F3
:10449000323041323130303230464646373831469C
:1044A0004530303232303232313031323044340003
:1044B0003A31303044443030304646463733344663
:1044C0004430313232303232313130343646464681
:1044D0003736374644303132324433003A313030A7
:1044E000444530303030463231313034364646463D
:1044F000373241464430303233314134363046323F
:1045000031303132303843003A3130304446303087
:104510003046464637313646453031323230433206
:1045200031313034364646463731464644303032F3
:10453000333045003A31303045303030303141345D
:1045400036304332313031323046464637304246DB
:1045500045303832304646463744304645343900D7
:104560003A31303045313030303031323130323222
:1045700030464646373932464330313231303232B6
:104580003046464637423246433232003A313030C6
:104590004532303030304334384646463744424660
:1045A000433032323046464637413246433031326C
:1045B00032304632313938003A31303045333030DC
:1045C0003031303436464646374239464434464622
:1045D000343741363046464637324646463030322A
:1045E000323444003A3130304534303030304632A5
:1045F0003130313230464646374230464434464602
:10460000343741363046464637323646463736002E
:104610003A3130304535303030454345373030421F
:104620004633353044303130383031344231383629
:104630003837303437303042463733003A31303053
:104640004536303030313030303030323033304237
:1046500035313431453035343639424230313834F1
:1046600036303544413638003A3130304537303015
:1046700030384232333242363034464630464633A2
:10468000303142423033304244344646343032379F
:10469000333542003A3130304538303030414446CD
:1046A0003830433330313442463034463146463375
:1046B00033323334363032393330353933463100E2
:1046C0003A31303045393030303446463646463758
:1046D0003330303931303439314144463830453364
:1046E0003030323436314539423931003A313030A8
:1046F0004541303030363934363238343630304651
:1047000030373246383433314342434246384232FE
:1047100033324236304238003A3130304542303060
:10472000303030324345314430303039423030322D
:1047300032314137304444453730374235303039F3
:10474000334642003A313030454330303031333433
:104750003630413436303134363033343830303618
:1047600038464646374342464630334230304300AF
:104770003A313030454430303035444638303446B4
:1047800042313030303030323032444539463034C6
:104790003738453638394534323642003A313030D0
:1047A00045453030303832343630433436393034A1
:1047B000363939343633374438384138393132466E
:1047C00034393036463043003A31303045463030A7
:1047D0003033314430323536383039363936463177
:1047E0004136353639303232333035454234353062
:1047F000353343003A313030463030303039354689
:104800004246334635303946313031303333423425
:10481000343944343233384246314434364233003A
:104820003A31303046313030303533303533304442
:1048300035323934363030463037444642303634FB
:104840003635304239304332333139003A31303045
:1048500046323030304341463830303330413338DF
:1048600039343346303430303341333831344646CE
:1048700030464633303942003A31303046333030FA
:104880003042444538463038373341343632313699
:10489000393030463046414641413338393233466B
:1048A000343634003A3130304634303030393036F6
:1048B00033343346303830303341333831323636A2
:1048C000313635363133453434454431424644007F
:1048D0003A31303046353030303236363041353688
:1048E0003034453436344534353030443934453449
:1048F0003633323436343134363733003A313030AF
:104900004636303030323036383030463046304639
:104910004141333638394231424133363032333611
:1049200038314534343645003A313030463730304E
:10493000303236363030303230444345373241340D
:1049400036303046304136464230363436303032FA
:10495000383933003A31303046383030304532441F
:1049600031323136393530343630304630463746DC
:1049700041433845373244453946303446413900A1
:104980003A313030463930303039444230383034C2
:1049900036303339333842383931443036304334A5
:1049A0003631363436304644354446003A313030BC
:1049B0004641303030304236393642423934303276
:1049C0003130304630333546423230363032303690
:1049D00031323842393436003A31303046423030A4
:1049E0003030433233433846383030333034464643
:1049F0003046463330433745303430323336333641
:104A0000314436003A313030464330303030303285
:104A1000333039393332303233384446383239332F
:104A20003033303233384446383241333030460048
:104A30003A31303046443030303446463030313010
:104A400042333734363344343631354638303133F7
:104A50004230424231323532423731003A31303021
:104A600046453030303345443142374542303630A8
:104A700041304244303533343633323436323134D7
:104A800036343034363637003A31303046463030FE
:104A9000304646463737324646303133303030467E
:104AA00030413438303039394235333434303939A3
:104AB000333645003A3130313030303030334237E0
:104AC000383030324230304630394438303030328D
:104AD0003334464630464633324344453941430039
:104AE0003A313031303130303030353233303439A2
:104AF0003330373933384446383533333031413940
:104B00003332463436303532323236003A31303193
:104B1000303230303031374638303131423446343B
:104B200038303046303333464130343942443042F5
:104B300039443930364441003A3130313033303045
:104B400030343442463230323238444638353332EB
:104B500030314130373434424632423232384446C2
:104B6000383744003A313031303430303035333238
:104B700030324137383241324131354430303739C3
:104B800041324634363030323030413235454400DF
:104B90003A313031303530303033393436313146D6
:104BA0003830313342333033423039324234444486
:104BB0003942384231304645304146003A31303191
:104BC000303630303032463436423845373346346A
:104BD000413830314130424641303046303138344E
:104BE00033303439303635003A31303130373030C7
:104BF0003033443436443345373033394131313141
:104C0000443132363830333931303032413031444A
:104C1000423534003A313031303830303030373985
:104C2000323034453035323432343346303032303D
:104C30003330373932303439333342373833340054
:104C40003A313031303930303032453242304344FD
:104C500031374237383241324233334431303339DD
:104C60004231413144314236383736003A31303101
:104C700030413030303033393230303242423842D5
:104C80004634464630464633333032333730353992
:104C900033324534443443003A31303130423030DD
:104CA00030333937383033323232383436303046B8
:104CB0003045424639333842313430323334303182
:104CC000423731003A3130313043303030303346C2
:104CD0004130304630303439423033343330313380
:104CE0003730343933333937383237343835460092
:104CF0003A3130313044303030384446383238314F
:104D00003030363232374531433030463044414618
:104D10003930303238333844303945003A31303167
:104D2000304530303032333442313342423033391F
:104D30004230373333323346303037303330383324
:104D400033303339334645003A3130313046303034
:104D500030303939423442343430393933364445CD
:104D600037303546423032333230313230304634EB
:104D7000363233003A31303131303030304136451F
:104D800037303032333031333730353933313934ED
:104D900036304132353338343631304638344200DB
:104DA0003A313031313130303030313242333033DA
:104DB0004130393241303344393030324243384463
:104DC0003030353931433645373234003A313031BD
:104DD000313230303030354642303132313031329C
:104DE000333037343646304537303341423030394E
:104DF00033323234364143003A313031313330309E
:104E00003031303442303441393430343641464622
:104E1000333030383042304631464633463831340C
:104E2000363539003A31303131343030304436445F
:104E300031413338393542303633464635333641E1
:104E400046303939383144423042444538334600DF
:104E50003A313031313530303046303846303341F8
:104E600042303039333232343630363442303441E5
:104E70003934303436303046304633003A31303110
:104E8000313630303038314638454145374243318C
:104E900038303130384332313830313038433631C0
:104EA00038303130383845003A31303131373030F0
:104EB00030303030303030303044393045303130BF
:104EC0003832444539463034373931343631463456
:104ED000364636003A3130313138303030384136AC
:104EE0003830423639444446383230383039333439
:104EF0003242384246313334364339463831450040
:104F00003A31303131393030303030333039314668
:104F1000383433323030363436304334363132423E
:104F20003130313333433946384444003A3130313B
:104F30003141303030303033303233363839393037
:104F400036343242464439463830303330303233EA
:104F500033433946384544003A31303131423030FC
:104F60003030303330323536383135463030363007
:104F700035303744313034463131393041453336BC
:104F8000383237003A3130313143303030443946ED
:104F90003830303230394231414142343232384493
:104FA00043393446383433333032323638464600AB
:104FB0003A313031314430303030303333313842AF
:104FC000463031323339323036324444343034466C
:104FD0003134333032333934363846003A313031B7
:104FE000314530303033303436433034373031337C
:104FF000303230443032333638453536384439462D
:1050000038303032303938003A3130313146303092
:10501000303033463030363033303432423038423C
:1050200046414431414133363832323639304342D9
:10503000464435003A313031323030303032354547
:1050400041453537353030323539333432433442E7
:1050500046394231414544313834464630464600AF
:105060003A31303132313030303030303931413313
:1050700034344434353141443130303230303845C5
:105080003030313233353234363336003A31303124
:1050900032323030303339343633303436433034D2
:1050A000373031333030334431344646304646337E
:1050B00030424445384141003A31303132333030AA
:1050C0003046303837303133354333453745313169
:1050D000383541314333303230383146383433306B
:1050E000304443003A3130313234303030323234AF
:1050F0003439344638343531303832463834333147
:105100003030323333433545373031323338350080
:105110003A3130313235303030323234363339345E
:10512000363330343643303437303133304536441B
:105130003030394631303130393346003A31303150
:1051400032363030304438453730303030324445F4
:1051500039463034333031463134333043304334E0
:1051600036303937453543003A3130313237303017
:1051700030383542303645323931373436303634CE
:10518000363938343630433941303046304233389E
:10519000303532003A31303132383030303232440A
:1051A0003836333239333644303041443830303297
:1051B00039303046304239383035383239314400B0
:1051C0003A3130313239303030303046303833389F
:1051D0003030344631343230353834463834323178
:1051E0003033324530363432394232003A313031A0
:1051F000324130303030314430363932394636443D
:105200003132303638313336383035303630334657
:1052100031303430313044003A3130313242303084
:105220003032414435314236383131363030303227
:1052300042303344413244323235423432383446DB
:10524000384342003A313031324330303034333237
:1052500030364634383041323233394530373332E4
:1052600039303046303944383030384438333600FD
:105270003A313031324430303036463239323044CF
:10528000303730323944444431323336383433469F
:105290003032303033323336304442003A313031FC
:1052A000324530303030334530373532393137449C
:1052B0003037383239443444313738323338344671
:1052C00038343533304334003A31303132463030BF
:1052D000303634343835354530313336383139317C
:1052E0004431423638313136303034463134323060
:1052F000353243003A313031333030303038344693
:10530000383432333030313233384345303142363D
:105310003831313630313046303430304631430068
:105320003A31303133313030303138424631424217
:1053300032434645373133363832353638313831F5
:105340004431303630323830363938003A31303145
:1053500033323030303031443531423638303245F6
:1053600030363830364642443531423838353434B8
:1053700038364632393644003A3130313333303002
:1053800030313442463041323230383232303032CD
:1053900031383446383433313036353638413536A5
:1053A000304332003A313031333430303030303203
:1053B000444330463239353830323136383231466E
:1053C00030303430313231363030303242354500D1
:1053D0003A3130313335303030334444313030328B
:1053E000443430463038453830363534363038324B
:1053F0004130424431323336384430003A31303172
:10540000333630303044423037303844353233363A
:1054100039363236383941343244454246333032F7
:1054200033303546383946003A3130313337303051
:1054300030303133433035463146463335414345CC
:1054400042303530333233363143444638303038E9
:10545000303945003A31303133383030303342342E
:1054600036303341413231343633303436464646B5
:1054700037463646453031333034444431313900D3
:105480003A313031333930303034464630464633A5
:105490003030354230424445384630383333393481
:1054A0003838344638343531304330003A313031D1
:1054B000334130303031333638323136383144319F
:1054C000443142363831353630304130363042445E
:1054D00035434130373436003A31303133423030A1
:1054E0003034344246343146303230303132313665
:1054F0003031424239323236383232463032303050
:10550000324335003A313031334330303032323685
:105510003031303232423745373444303634384215
:1055200046394242324546453736353436413300F6
:105530003A313031334430303042334642463246DD
:1055400031303246423131333343333543303546DF
:105550003830313344304234363930003A3130312A
:1055600033453030303030323946354431423945B8
:1055700037313336383235363836313639313831DD
:1055800044313036304637003A31303133463030EE
:1055900030323830363142363830314435313936B0
:1055A0003030324530364130364642443531393874
:1055B000303332003A313031343030303030303204
:1055C0003332333631363534364239453731333676
:1055D00038313931443131363031443638343300A2
:1055E0003A31303134313030303632363830303292
:1055F0003132383436303046303342463830384233
:105600003134303142363036303743003A31303180
:10561000343230303036333638323336313030325F
:105620003338344638343333304137453732333604
:1056300039324134364431003A313031343330304C
:105640003033393436333034364330343730313315
:1056500030414144303233363839423037313344C7
:10566000344631003A313031343430303045303620
:10567000383033394239383432423842463138349E
:1056800036413345373031323334413436433900D3
:105690003A313031343530303033393436333034D8
:1056A00036433034373031333039414430303133A0
:1056B0003545333638303339414437003A313031AB
:1056C000343630303039423141414234324632444E
:1056D0004345424537303032353034463131393048
:1056E00039463545373232003A313031343730308F
:1056F0003030303242414344313033373838344629
:105700003834323330303446313432303536434534
:10571000374343003A31303134383030304344314C
:10572000383031303844453138303130383030302D
:10573000303030303030303030303030303646007D
:105740003A313031343930303030314630464630FD
:1057500031313032413242444231304630303730DC
:105760004630384430313046383235003A31303105
:1057700034413030303031334230313341384234CB
:1057800032324444303130463030373046343242A1
:1057900033463644313239003A31303134423030D8
:1057A0003046304234343145413031323134314584
:1057B000413031343132324630303730343746467A
:1057C000303432003A3130313443303030303030E0
:1057D0003730303233463045383032353630383372
:1057E0004338354541303130353836454139390057
:1057F0003A3130313444303030303130363835465B
:1058000041343746354133464138374635383646D8
:105810004134374636413546414435003A3130311E
:1058200034453030303837463638454239454544BE
:1058300031463042433031463046463031303246D0
:1058400030303730324531003A3130313446303043
:1058500030333242313130463830313342303133F7
:1058600041383345413031303331334231463844A9
:10587000313843003A313031353030303030303229
:1058800030373034373031333837303437303032E6
:1058900044303642463335343630333338364300BD
:1058A0003A313031353130303030373338313546B8
:1058B0003030313046303744313031333031354695
:1058C0003438303746303242464135003A31303193
:1058D0003532303030303133303135463443303387
:1058E000463031333046304243303133383730344C
:1058F00037303042464636003A3130313533303079
:10590000303130423534333145304134343931343B
:105910003230304431313042443131463830313424
:10592000423731003A31303135343030303033465F
:1059300038303134464637453738383432313042E2
:10594000353031454230323033303744383133002E
:105950003A313031353530303034323145393934FF
:1059600032304144303131463830313442303246C1
:105970003830313446463845374638003A313031D0
:1059800035363030303833343246354439383131B9
:105990003844323141443334323030443131304292
:1059A00044313346384135003A31303135373030C3
:1059B0003030313444303146383031344446374564
:1059C0003733384235303534363030323934354477
:1059D000303832003A3130313538303030353146B8
:1059E000383034334330433146303032424238422B
:1059F000464534313830304630443246383446003B
:105A00003A31303135393030303146344131333646
:105A10003831303436333342393633363031343638
:105A20003032383436424445384442003A3130311D
:105A300035413030303338343030304630433842FE
:105A400038413334323043443932313638363231EA
:105A500038393334324231003A3130313542303026
:105A600030303442463141363835423638363336B6
:105A700030303442463532313832323630303436D6
:105A8000303444003A3130313543303030454345CD
:105A90003731333436354136383041423141323492
:105AA000324641443931393638353831384341008E
:105AB0003A31303135443030304130343230424484
:105AC0003132303638303134343538313838323498
:105AD0003231393630444444313235003A31303194
